{
  "_format": "hh-sol-artifact-1",
  "contractName": "AuditBook",
  "sourceName": "contracts/AuditBook.sol",
  "abi": [
    {
      "inputs": [],
      "stateMutability": "nonpayable",
      "type": "constructor"
    },
    {
      "anonymous": false,
      "inputs": [
        {
          "components": [
            {
              "internalType": "uint256",
              "name": "id",
              "type": "uint256"
            },
            {
              "internalType": "address",
              "name": "auditCompanies",
              "type": "address"
            },
            {
              "internalType": "address",
              "name": "auditableCompanies",
              "type": "address"
            },
            {
              "internalType": "enum AuditBook.AuditState",
              "name": "state",
              "type": "uint8"
            },
            {
              "internalType": "string",
              "name": "finding",
              "type": "string"
            }
          ],
          "indexed": false,
          "internalType": "struct AuditBook.Audit",
          "name": "audit",
          "type": "tuple"
        }
      ],
      "name": "AuditSubmitted",
      "type": "event"
    },
    {
      "anonymous": false,
      "inputs": [
        {
          "components": [
            {
              "internalType": "uint256",
              "name": "id",
              "type": "uint256"
            },
            {
              "internalType": "address",
              "name": "auditCompanies",
              "type": "address"
            },
            {
              "internalType": "address",
              "name": "auditableCompanies",
              "type": "address"
            },
            {
              "internalType": "enum AuditBook.AuditState",
              "name": "state",
              "type": "uint8"
            },
            {
              "internalType": "string",
              "name": "finding",
              "type": "string"
            }
          ],
          "indexed": false,
          "internalType": "struct AuditBook.Audit",
          "name": "audit",
          "type": "tuple"
        }
      ],
      "name": "AuditSubmittedStateChanged",
      "type": "event"
    },
    {
      "inputs": [
        {
          "internalType": "address",
          "name": "_company",
          "type": "address"
        }
      ],
      "name": "ApproveAuditCompany",
      "outputs": [],
      "stateMutability": "nonpayable",
      "type": "function"
    },
    {
      "inputs": [
        {
          "internalType": "address",
          "name": "_company",
          "type": "address"
        }
      ],
      "name": "ApproveAuditableCompany",
      "outputs": [],
      "stateMutability": "nonpayable",
      "type": "function"
    },
    {
      "inputs": [
        {
          "internalType": "string",
          "name": "_companyName",
          "type": "string"
        }
      ],
      "name": "AuditCompanyRequestAdmision",
      "outputs": [],
      "stateMutability": "nonpayable",
      "type": "function"
    },
    {
      "inputs": [],
      "name": "AuditCompanyState",
      "outputs": [
        {
          "internalType": "enum CompanyManager.RequestAdmissionStateEnum",
          "name": "",
          "type": "uint8"
        }
      ],
      "stateMutability": "view",
      "type": "function"
    },
    {
      "inputs": [
        {
          "internalType": "uint256",
          "name": "id",
          "type": "uint256"
        }
      ],
      "name": "AuditableCompanyApproveSubmittedAudit",
      "outputs": [],
      "stateMutability": "nonpayable",
      "type": "function"
    },
    {
      "inputs": [
        {
          "internalType": "uint256",
          "name": "id",
          "type": "uint256"
        }
      ],
      "name": "AuditableCompanyRejectSubmittedAudit",
      "outputs": [],
      "stateMutability": "nonpayable",
      "type": "function"
    },
    {
      "inputs": [
        {
          "internalType": "string",
          "name": "_companyName",
          "type": "string"
        }
      ],
      "name": "AuditableCompanyRequestAdmision",
      "outputs": [],
      "stateMutability": "nonpayable",
      "type": "function"
    },
    {
      "inputs": [],
      "name": "AuditableCompanyState",
      "outputs": [
        {
          "internalType": "enum CompanyManager.RequestAdmissionStateEnum",
          "name": "",
          "type": "uint8"
        }
      ],
      "stateMutability": "view",
      "type": "function"
    },
    {
      "inputs": [],
      "name": "IsRegisteredAsAuditCompany",
      "outputs": [
        {
          "internalType": "bool",
          "name": "",
          "type": "bool"
        }
      ],
      "stateMutability": "view",
      "type": "function"
    },
    {
      "inputs": [],
      "name": "IsRegisteredAsAuditableCompany",
      "outputs": [
        {
          "internalType": "bool",
          "name": "",
          "type": "bool"
        }
      ],
      "stateMutability": "view",
      "type": "function"
    },
    {
      "inputs": [
        {
          "internalType": "address",
          "name": "_company",
          "type": "address"
        },
        {
          "internalType": "string",
          "name": "_message",
          "type": "string"
        }
      ],
      "name": "RejectAuditCompany",
      "outputs": [],
      "stateMutability": "nonpayable",
      "type": "function"
    },
    {
      "inputs": [
        {
          "internalType": "address",
          "name": "_company",
          "type": "address"
        },
        {
          "internalType": "string",
          "name": "_message",
          "type": "string"
        }
      ],
      "name": "RejectAuditableCompany",
      "outputs": [],
      "stateMutability": "nonpayable",
      "type": "function"
    },
    {
      "inputs": [
        {
          "internalType": "address",
          "name": "_auditableCompany",
          "type": "address"
        },
        {
          "internalType": "string",
          "name": "_finding",
          "type": "string"
        }
      ],
      "name": "SubmitAudit",
      "outputs": [],
      "stateMutability": "nonpayable",
      "type": "function"
    },
    {
      "inputs": [],
      "name": "admin",
      "outputs": [
        {
          "internalType": "address",
          "name": "",
          "type": "address"
        }
      ],
      "stateMutability": "view",
      "type": "function"
    },
    {
      "inputs": [],
      "name": "adminName",
      "outputs": [
        {
          "internalType": "string",
          "name": "",
          "type": "string"
        }
      ],
      "stateMutability": "view",
      "type": "function"
    },
    {
      "inputs": [],
      "name": "getApprovedAuditableCompanies",
      "outputs": [
        {
          "components": [
            {
              "internalType": "enum CompanyManager.CompanyTypeEnum",
              "name": "companyType",
              "type": "uint8"
            },
            {
              "internalType": "address",
              "name": "account",
              "type": "address"
            },
            {
              "internalType": "string",
              "name": "name",
              "type": "string"
            },
            {
              "internalType": "enum CompanyManager.RequestAdmissionStateEnum",
              "name": "state",
              "type": "uint8"
            },
            {
              "internalType": "string",
              "name": "changeStateMessage",
              "type": "string"
            }
          ],
          "internalType": "struct CompanyManager.Company[]",
          "name": "",
          "type": "tuple[]"
        }
      ],
      "stateMutability": "view",
      "type": "function"
    },
    {
      "inputs": [],
      "name": "getAuditCompanies",
      "outputs": [
        {
          "components": [
            {
              "internalType": "enum CompanyManager.CompanyTypeEnum",
              "name": "companyType",
              "type": "uint8"
            },
            {
              "internalType": "address",
              "name": "account",
              "type": "address"
            },
            {
              "internalType": "string",
              "name": "name",
              "type": "string"
            },
            {
              "internalType": "enum CompanyManager.RequestAdmissionStateEnum",
              "name": "state",
              "type": "uint8"
            },
            {
              "internalType": "string",
              "name": "changeStateMessage",
              "type": "string"
            }
          ],
          "internalType": "struct CompanyManager.Company[]",
          "name": "",
          "type": "tuple[]"
        }
      ],
      "stateMutability": "view",
      "type": "function"
    },
    {
      "inputs": [],
      "name": "getAuditCompanyRegister",
      "outputs": [
        {
          "components": [
            {
              "internalType": "enum CompanyManager.CompanyTypeEnum",
              "name": "companyType",
              "type": "uint8"
            },
            {
              "internalType": "address",
              "name": "account",
              "type": "address"
            },
            {
              "internalType": "string",
              "name": "name",
              "type": "string"
            },
            {
              "internalType": "enum CompanyManager.RequestAdmissionStateEnum",
              "name": "state",
              "type": "uint8"
            },
            {
              "internalType": "string",
              "name": "changeStateMessage",
              "type": "string"
            }
          ],
          "internalType": "struct CompanyManager.Company",
          "name": "",
          "type": "tuple"
        }
      ],
      "stateMutability": "view",
      "type": "function"
    },
    {
      "inputs": [],
      "name": "getAuditableCompanies",
      "outputs": [
        {
          "components": [
            {
              "internalType": "enum CompanyManager.CompanyTypeEnum",
              "name": "companyType",
              "type": "uint8"
            },
            {
              "internalType": "address",
              "name": "account",
              "type": "address"
            },
            {
              "internalType": "string",
              "name": "name",
              "type": "string"
            },
            {
              "internalType": "enum CompanyManager.RequestAdmissionStateEnum",
              "name": "state",
              "type": "uint8"
            },
            {
              "internalType": "string",
              "name": "changeStateMessage",
              "type": "string"
            }
          ],
          "internalType": "struct CompanyManager.Company[]",
          "name": "",
          "type": "tuple[]"
        }
      ],
      "stateMutability": "view",
      "type": "function"
    },
    {
      "inputs": [],
      "name": "getAuditableCompanyRegister",
      "outputs": [
        {
          "components": [
            {
              "internalType": "enum CompanyManager.CompanyTypeEnum",
              "name": "companyType",
              "type": "uint8"
            },
            {
              "internalType": "address",
              "name": "account",
              "type": "address"
            },
            {
              "internalType": "string",
              "name": "name",
              "type": "string"
            },
            {
              "internalType": "enum CompanyManager.RequestAdmissionStateEnum",
              "name": "state",
              "type": "uint8"
            },
            {
              "internalType": "string",
              "name": "changeStateMessage",
              "type": "string"
            }
          ],
          "internalType": "struct CompanyManager.Company",
          "name": "",
          "type": "tuple"
        }
      ],
      "stateMutability": "view",
      "type": "function"
    },
    {
      "inputs": [],
      "name": "getAuditableCompanySubmittedAudits",
      "outputs": [
        {
          "components": [
            {
              "internalType": "uint256",
              "name": "id",
              "type": "uint256"
            },
            {
              "internalType": "address",
              "name": "auditCompanies",
              "type": "address"
            },
            {
              "internalType": "address",
              "name": "auditableCompanies",
              "type": "address"
            },
            {
              "internalType": "enum AuditBook.AuditState",
              "name": "state",
              "type": "uint8"
            },
            {
              "internalType": "string",
              "name": "finding",
              "type": "string"
            }
          ],
          "internalType": "struct AuditBook.Audit[]",
          "name": "",
          "type": "tuple[]"
        }
      ],
      "stateMutability": "view",
      "type": "function"
    },
    {
      "inputs": [
        {
          "internalType": "string",
          "name": "_name",
          "type": "string"
        }
      ],
      "name": "setAdminName",
      "outputs": [],
      "stateMutability": "nonpayable",
      "type": "function"
    }
  ],
  "bytecode": "0x60806040523480156200001157600080fd5b50600280546001600160a01b0319163317908190556040516001600160a01b0391909116906200004190620000f0565b6200004d9190620000fe565b604051809103906000f0801580156200006a573d6000803e3d6000fd5b50600080546001600160a01b0319166001600160a01b039283161790556002546040519116906200009b90620000f0565b620000a79190620000fe565b604051809103906000f080158015620000c4573d6000803e3d6000fd5b50600180546001600160a01b0319166001600160a01b0392909216919091179055600060045562000112565b61198f80620024d283390190565b6001600160a01b0391909116815260200190565b6123b080620001226000396000f3fe608060405234801561001057600080fd5b50600436106101425760003560e01c80638954ce46116100b8578063a8a23e391161007c578063a8a23e3914610260578063a99165df14610275578063d54c93db14610288578063e71df1181461029b578063f851a440146102ae578063fc2e495e146102c357610142565b80638954ce46146102155780639152351d146102285780639350e9a71461023057806397600a0b146102385780639ff72a991461024b57610142565b806335afadce1161010a57806335afadce146101aa5780633fd55e71146101b25780634b035cb4146101c55780634b308aae146101d85780634f0ff8b5146101ed578063727c1ee31461020057610142565b806307178066146101475780632264a2da1461015c57806326e93dc41461017a578063304108811461018d578063345225d3146101a2575b600080fd5b61015a610155366004611a88565b6102cb565b005b6101646107e3565b6040516101719190611e6e565b60405180910390f35b61015a610188366004611a65565b610869565b6101956108d1565b6040516101719190611e03565b610195610951565b610195610996565b61015a6101c0366004611a65565b6109db565b61015a6101d3366004611c15565b610a0d565b6101e0610d5a565b60405161017191906121e5565b61015a6101fb366004611a88565b610de6565b610208610e51565b6040516101719190611e63565b61015a610223366004611baf565b610ed2565b610208610f06565b610164610f37565b61015a610246366004611baf565b610f68565b610253610fa5565b6040516101719190611d69565b61026861143a565b6040516101719190611e81565b61015a610283366004611baf565b6114c8565b61015a610296366004611a88565b6114fc565b61015a6102a9366004611c15565b611530565b6102b66117a7565b6040516101719190611cdc565b6101e06117b6565b60005460405163c224122d60e01b81526001600160a01b039091169063c224122d906102fb903390600401611cdc565b60206040518083038186803b15801561031357600080fd5b505afa158015610327573d6000803e3d6000fd5b505050506040513d601f19601f8201168201806040525081019061034b9190611b75565b6103705760405162461bcd60e51b815260040161036790611ee1565b60405180910390fd5b60015460405163c224122d60e01b81526001600160a01b039091169063c224122d906103a0908590600401611cdc565b60206040518083038186803b1580156103b857600080fd5b505afa1580156103cc573d6000803e3d6000fd5b505050506040513d601f19601f820116820180604052508101906103f09190611b75565b61040c5760405162461bcd60e51b815260040161036790611fe4565b600054604051631d2e0c9160e01b81526001916001600160a01b031690631d2e0c919061043d903390600401611cdc565b60206040518083038186803b15801561045557600080fd5b505afa158015610469573d6000803e3d6000fd5b505050506040513d601f19601f8201168201806040525081019061048d9190611b95565b60028111156104ac57634e487b7160e01b600052602160045260246000fd5b146104c95760405162461bcd60e51b8152600401610367906120aa565b60018054604051631d2e0c9160e01b81526001600160a01b0390911690631d2e0c91906104fa908690600401611cdc565b60206040518083038186803b15801561051257600080fd5b505afa158015610526573d6000803e3d6000fd5b505050506040513d601f19601f8201168201806040525081019061054a9190611b95565b600281111561056957634e487b7160e01b600052602160045260246000fd5b146105865760405162461bcd60e51b815260040161036790611f24565b336001600160a01b03831614156105af5760405162461bcd60e51b81526004016103679061202b565b600480549060006105bf836122f8565b90915550506040805160a08101825260048054825233602083019081526001600160a01b03868116948401948552600060608501818152608086018890526005805460018101825592528551919094027f036b6384b5eca791c62761152d0c79bb0604c104a5fb6f4eb0703f3154bb3db0810191825592517f036b6384b5eca791c62761152d0c79bb0604c104a5fb6f4eb0703f3154bb3db1840180549184166001600160a01b031992831617905595517f036b6384b5eca791c62761152d0c79bb0604c104a5fb6f4eb0703f3154bb3db2909301805493909216929095169190911780825591519293929160ff60a01b1916600160a01b8360028111156106d757634e487b7160e01b600052602160045260246000fd5b0217905550608082015180516106f79160038401916020909101906117ee565b505033600090815260066020526040902060045490915061071a9060019061225f565b81546001818101845560009384526020808520909201929092556001600160a01b038516835260079052604090912060045490916107579161225f565b8154600181810184556000938452602090932001556004547fc7672526c3f11eb9ea24685867030c2f636233c796bf4f2dbe2982eb3e8b2ade9160059161079e919061225f565b815481106107bc57634e487b7160e01b600052603260045260246000fd5b90600052602060002090600402016040516107d791906120eb565b60405180910390a15050565b60008054604051631d2e0c9160e01b81526001600160a01b0390911690631d2e0c9190610814903390600401611cdc565b60206040518083038186803b15801561082c57600080fd5b505afa158015610840573d6000803e3d6000fd5b505050506040513d601f19601f820116820180604052508101906108649190611b95565b905090565b600154604051633ce2da1d60e01b81526001600160a01b0390911690633ce2da1d9061089b9033908590600401611cf0565b600060405180830381600087803b1580156108b557600080fd5b505af11580156108c9573d6000803e3d6000fd5b505050505b50565b60008054604080516353ed514360e01b815290516060936001600160a01b03909316926353ed51439260048082019391829003018186803b15801561091557600080fd5b505afa158015610929573d6000803e3d6000fd5b505050506040513d6000823e601f3d908101601f191682016040526108649190810190611ad6565b600154604080516353ed514360e01b815290516060926001600160a01b0316916353ed5143916004808301926000929190829003018186803b15801561091557600080fd5b6001546040805163d07b77b560e01b815290516060926001600160a01b03169163d07b77b5916004808301926000929190829003018186803b15801561091557600080fd5b600054604051633ce2da1d60e01b81526001600160a01b0390911690633ce2da1d9061089b9033908590600401611cf0565b60015460405163c224122d60e01b81526001600160a01b039091169063c224122d90610a3d903390600401611cdc565b60206040518083038186803b158015610a5557600080fd5b505afa158015610a69573d6000803e3d6000fd5b505050506040513d601f19601f82011682018060405250810190610a8d9190611b75565b610aa95760405162461bcd60e51b815260040161036790611fe4565b60018054604051631d2e0c9160e01b81526001600160a01b0390911690631d2e0c9190610ada903390600401611cdc565b60206040518083038186803b158015610af257600080fd5b505afa158015610b06573d6000803e3d6000fd5b505050506040513d601f19601f82011682018060405250810190610b2a9190611b95565b6002811115610b4957634e487b7160e01b600052602160045260246000fd5b14610b665760405162461bcd60e51b815260040161036790611f24565b600554811115610b885760405162461bcd60e51b815260040161036790611fad565b60006005610b9760018461225f565b81548110610bb557634e487b7160e01b600052603260045260246000fd5b906000526020600020906004020160020160149054906101000a900460ff166002811115610bf357634e487b7160e01b600052602160045260246000fd5b14610c105760405162461bcd60e51b815260040161036790612062565b336005610c1e60018461225f565b81548110610c3c57634e487b7160e01b600052603260045260246000fd5b60009182526020909120600260049092020101546001600160a01b031614610c765760405162461bcd60e51b815260040161036790611f69565b60026005610c8560018461225f565b81548110610ca357634e487b7160e01b600052603260045260246000fd5b906000526020600020906004020160020160146101000a81548160ff02191690836002811115610ce357634e487b7160e01b600052602160045260246000fd5b02179055507f017d498afc9841db1d01c016ddcf220282972fb3ab8fe651ad862a23615442096005610d1660018461225f565b81548110610d3457634e487b7160e01b600052603260045260246000fd5b9060005260206000209060040201604051610d4f91906120eb565b60405180910390a150565b610d62611872565b600154604051633faa645560e11b81526001600160a01b0390911690637f54c8aa90610d92903390600401611cdc565b60006040518083038186803b158015610daa57600080fd5b505afa158015610dbe573d6000803e3d6000fd5b505050506040513d6000823e601f3d908101601f191682016040526108649190810190611be2565b6001546040516391d810f160e01b81526001600160a01b03909116906391d810f190610e1a90339086908690600401611d0a565b600060405180830381600087803b158015610e3457600080fd5b505af1158015610e48573d6000803e3d6000fd5b505050505b5050565b60015460405163c224122d60e01b81526000916001600160a01b03169063c224122d90610e82903390600401611cdc565b60206040518083038186803b158015610e9a57600080fd5b505afa158015610eae573d6000803e3d6000fd5b505050506040513d601f19601f820116820180604052508101906108649190611b75565b60008054604051631c9d0d3760e21b81526001600160a01b039091169163727434dc9161089b913391869190600401611d36565b6000805460405163c224122d60e01b81526001600160a01b039091169063c224122d90610e82903390600401611cdc565b600154604051631d2e0c9160e01b81526000916001600160a01b031690631d2e0c9190610814903390600401611cdc565b6002546001600160a01b03163314610f925760405162461bcd60e51b815260040161036790611e94565b8051610e4d9060039060208401906117ee565b60015460405163c224122d60e01b81526060916001600160a01b03169063c224122d90610fd6903390600401611cdc565b60206040518083038186803b158015610fee57600080fd5b505afa158015611002573d6000803e3d6000fd5b505050506040513d601f19601f820116820180604052508101906110269190611b75565b6110425760405162461bcd60e51b815260040161036790611fe4565b60018054604051631d2e0c9160e01b81526001600160a01b0390911690631d2e0c9190611073903390600401611cdc565b60206040518083038186803b15801561108b57600080fd5b505afa15801561109f573d6000803e3d6000fd5b505050506040513d601f19601f820116820180604052508101906110c39190611b95565b60028111156110e257634e487b7160e01b600052602160045260246000fd5b146110ff5760405162461bcd60e51b815260040161036790611f24565b33600090815260076020526040812090805b82548110156111a15760006005828154811061113d57634e487b7160e01b600052603260045260246000fd5b906000526020600020906004020160020160149054906101000a900460ff16600281111561117b57634e487b7160e01b600052602160045260246000fd5b141561118f578161118b816122f8565b9250505b80611199816122f8565b915050611111565b5060008167ffffffffffffffff8111156111cb57634e487b7160e01b600052604160045260246000fd5b60405190808252806020026020018201604052801561120457816020015b6111f16118a3565b8152602001906001900390816111e95790505b5090506000805b84548110801561121b5750600084115b156114305760006005828154811061124357634e487b7160e01b600052603260045260246000fd5b906000526020600020906004020160020160149054906101000a900460ff16600281111561128157634e487b7160e01b600052602160045260246000fd5b141561141e57600581815481106112a857634e487b7160e01b600052603260045260246000fd5b60009182526020918290206040805160a0810182526004939093029091018054835260018101546001600160a01b03908116948401949094526002808201549485169284019290925291926060840191600160a01b90910460ff169081111561132157634e487b7160e01b600052602160045260246000fd5b600281111561134057634e487b7160e01b600052602160045260246000fd5b8152602001600382018054611354906122bd565b80601f0160208091040260200160405190810160405280929190818152602001828054611380906122bd565b80156113cd5780601f106113a2576101008083540402835291602001916113cd565b820191906000526020600020905b8154815290600101906020018083116113b057829003601f168201915b5050505050815250508383815181106113f657634e487b7160e01b600052603260045260246000fd5b6020026020010181905250818061140c906122f8565b925050838061141a906122a6565b9450505b80611428816122f8565b91505061120b565b5090935050505090565b60038054611447906122bd565b80601f0160208091040260200160405190810160405280929190818152602001828054611473906122bd565b80156114c05780601f10611495576101008083540402835291602001916114c0565b820191906000526020600020905b8154815290600101906020018083116114a357829003601f168201915b505050505081565b60018054604051631c9d0d3760e21b81526001600160a01b039091169163727434dc9161089b913391869190600401611d36565b6000546040516391d810f160e01b81526001600160a01b03909116906391d810f190610e1a90339086908690600401611d0a565b60015460405163c224122d60e01b81526001600160a01b039091169063c224122d90611560903390600401611cdc565b60206040518083038186803b15801561157857600080fd5b505afa15801561158c573d6000803e3d6000fd5b505050506040513d601f19601f820116820180604052508101906115b09190611b75565b6115cc5760405162461bcd60e51b815260040161036790611fe4565b60018054604051631d2e0c9160e01b81526001600160a01b0390911690631d2e0c91906115fd903390600401611cdc565b60206040518083038186803b15801561161557600080fd5b505afa158015611629573d6000803e3d6000fd5b505050506040513d601f19601f8201168201806040525081019061164d9190611b95565b600281111561166c57634e487b7160e01b600052602160045260246000fd5b146116895760405162461bcd60e51b815260040161036790611f24565b6005548111156116ab5760405162461bcd60e51b815260040161036790611fad565b600060056116ba60018461225f565b815481106116d857634e487b7160e01b600052603260045260246000fd5b906000526020600020906004020160020160149054906101000a900460ff16600281111561171657634e487b7160e01b600052602160045260246000fd5b146117335760405162461bcd60e51b815260040161036790612062565b33600561174160018461225f565b8154811061175f57634e487b7160e01b600052603260045260246000fd5b60009182526020909120600260049092020101546001600160a01b0316146117995760405162461bcd60e51b815260040161036790611f69565b60016005610c85828461225f565b6002546001600160a01b031681565b6117be611872565b600054604051633faa645560e11b81526001600160a01b0390911690637f54c8aa90610d92903390600401611cdc565b8280546117fa906122bd565b90600052602060002090601f01602090048101928261181c5760008555611862565b82601f1061183557805160ff1916838001178555611862565b82800160010185558215611862579182015b82811115611862578251825591602001919060010190611847565b5061186e9291506118ca565b5090565b6040805160a081018252600080825260208201819052606092820183905290918201905b8152602001606081525090565b6040805160a081018252600080825260208201819052918101829052906060820190611896565b5b8082111561186e57600081556001016118cb565b80516118ea81612365565b919050565b8051600281106118ea57600080fd5b8051600381106118ea57600080fd5b600082601f83011261191d578081fd5b813561193061192b82612222565b6121f8565b818152846020838601011115611944578283fd5b816020850160208301379081016020019190915292915050565b600082601f83011261196e578081fd5b815161197c61192b82612222565b818152846020838601011115611990578283fd5b6119a1826020830160208701612276565b949350505050565b600060a082840312156119ba578081fd5b60405160a0810167ffffffffffffffff82821081831117156119de576119de61233f565b816040528293506119ee856118ef565b83526119fc602086016118df565b60208401526040850151915080821115611a1557600080fd5b611a218683870161195e565b6040840152611a32606086016118fe565b60608401526080850151915080821115611a4b57600080fd5b50611a588582860161195e565b6080830152505092915050565b600060208284031215611a76578081fd5b8135611a8181612365565b9392505050565b60008060408385031215611a9a578081fd5b8235611aa581612365565b9150602083013567ffffffffffffffff811115611ac0578182fd5b611acc8582860161190d565b9150509250929050565b60006020808385031215611ae8578182fd5b825167ffffffffffffffff80821115611aff578384fd5b818501915085601f830112611b12578384fd5b815181811115611b2457611b2461233f565b611b3184858302016121f8565b8181528481019250838501865b83811015611b6757611b558a8884518901016119a9565b85529386019390860190600101611b3e565b509098975050505050505050565b600060208284031215611b86578081fd5b81518015158114611a81578182fd5b600060208284031215611ba6578081fd5b611a81826118fe565b600060208284031215611bc0578081fd5b813567ffffffffffffffff811115611bd6578182fd5b6119a18482850161190d565b600060208284031215611bf3578081fd5b815167ffffffffffffffff811115611c09578182fd5b6119a1848285016119a9565b600060208284031215611c26578081fd5b5035919050565b60028110611c3d57611c3d612329565b9052565b60008151808452611c59816020860160208601612276565b601f01601f19169290920160200192915050565b6000611c7a838351611c2d565b60018060a01b036020830151166020840152604082015160a06040850152611ca560a0850182611c41565b90506060830151611cb581612355565b8060608601525060808301518482036080860152611cd38282611c41565b95945050505050565b6001600160a01b0391909116815260200190565b6001600160a01b0392831681529116602082015260400190565b6001600160a01b03848116825283166020820152606060408201819052600090611cd390830184611c41565b6001600160a01b0384168152606060208201819052600090611d5a90830185611c41565b90506119a16040830184611c2d565b60208082528251828201819052600091906040908185019080840286018301878501865b83811015611b6757888303603f19018552815180518452878101516001600160a01b039081168986015287820151168785015260608082015160a09190611dd381612355565b90860152608091820151918501819052611def81860183611c41565b968901969450505090860190600101611d8d565b6000602080830181845280855180835260408601915060408482028701019250838701855b82811015611e5657603f19888603018452611e44858351611c6d565b94509285019290850190600101611e28565b5092979650505050505050565b901515815260200190565b60208101611e7b83612355565b91905290565b600060208252611a816020830184611c41565b6020808252602d908201527f596f75206d757374206265207468652061646d696e6973747261746f7220746f60408201526c2073657420746865206e616d6560981b606082015260800190565b60208082526023908201527f54686520617564697420636f6d70616e79206973206e6f7420726567697374656040820152621c995960ea1b606082015260800190565b60208082526025908201527f54686520617564697461626c6520636f6d70616e79206973206e6f74206170706040820152641c9bdd995960da1b606082015260800190565b60208082526024908201527f5468652061756469742062656c6f6e677320746f20616e6f7468657220636f6d60408201526370616e7960e01b606082015260800190565b6020808252601b908201527f54686520617564697420696420646f6573206e6f742065786973740000000000604082015260600190565b60208082526027908201527f54686520617564697461626c6520636f6d70616e79206973206e6f74207265676040820152661a5cdd195c995960ca1b606082015260800190565b60208082526018908201527f596f752063616e277420617564697420796f757273656c660000000000000000604082015260600190565b60208082526028908201527f54686520617564697420697320616c726561647920617070726f766564206f206040820152671c995a9958dd195960c21b606082015260800190565b60208082526021908201527f54686520617564697420636f6d70616e79206973206e6f7420617070726f76656040820152601960fa1b606082015260800190565b60208082528254828201526001808401546001600160a01b039081166040850152600285015490811660608501526000929160a09190911c60ff169061213082612355565b81608086015260038601915060a080860152838254856002820490508382168061215b57607f821691505b86821081141561217957634e487b7160e01b88526022600452602488fd5b6121868260c08b01612256565b81801561219a57600181146121ab576121d5565b60ff198516825288820195506121d5565b6121b48861224a565b8a5b858110156121cf57815484820152908801908a016121b6565b83019650505b50939a9950505050505050505050565b600060208252611a816020830184611c6d565b60405181810167ffffffffffffffff8111828210171561221a5761221a61233f565b604052919050565b600067ffffffffffffffff82111561223c5761223c61233f565b50601f01601f191660200190565b60009081526020902090565b90815260200190565b60008282101561227157612271612313565b500390565b60005b83811015612291578181015183820152602001612279565b838111156122a0576000848401525b50505050565b6000816122b5576122b5612313565b506000190190565b6002810460018216806122d157607f821691505b602082108114156122f257634e487b7160e01b600052602260045260246000fd5b50919050565b600060001982141561230c5761230c612313565b5060010190565b634e487b7160e01b600052601160045260246000fd5b634e487b7160e01b600052602160045260246000fd5b634e487b7160e01b600052604160045260246000fd5b600381106108ce576108ce612329565b6001600160a01b03811681146108ce57600080fdfea264697066735822122045d9920e6ce8dff685ec8fc7d93b3dca1a0674a6f2d39c726e5746a5b820324164736f6c63430008000033608060405234801561001057600080fd5b5060405161198f38038061198f83398101604081905261002f91610054565b600280546001600160a01b0319166001600160a01b0392909216919091179055610082565b600060208284031215610065578081fd5b81516001600160a01b038116811461007b578182fd5b9392505050565b6118fe806100916000396000f3fe608060405234801561001057600080fd5b50600436106100935760003560e01c8063727434dc11610066578063727434dc1461010f5780637f54c8aa1461012257806391d810f114610142578063c224122d14610155578063d07b77b51461017557610093565b80631d2e0c9114610098578063355e6ce8146100c15780633ce2da1d146100e557806353ed5143146100fa575b600080fd5b6100ab6100a63660046112ce565b61017d565b6040516100b89190611582565b60405180910390f35b6100d46100cf3660046112ce565b6101eb565b6040516100b8959493929190611527565b6100f86100f33660046112ef565b610342565b005b610102610423565b6040516100b891906114bc565b6100f861011d36600461137d565b610705565b6101356101303660046112ce565b61092d565b6040516100b891906117f1565b6100f8610150366004611321565b610b72565b6101686101633660046112ce565b610c1d565b6040516100b8919061151c565b610102610c42565b6001600160a01b038181166000908152600160205260408120549091610100909104166101c55760405162461bcd60e51b81526004016101bc906117ba565b60405180910390fd5b506001600160a01b03811660009081526001602052604090206002015460ff165b919050565b60016020819052600091825260409091208054918101805460ff84169361010090046001600160a01b031692919061022290611830565b80601f016020809104026020016040519081016040528092919081815260200182805461024e90611830565b801561029b5780601f106102705761010080835404028352916020019161029b565b820191906000526020600020905b81548152906001019060200180831161027e57829003601f168201915b5050506002840154600385018054949560ff9092169491935091506102bf90611830565b80601f01602080910402602001604051908101604052809291908181526020018280546102eb90611830565b80156103385780601f1061030d57610100808354040283529160200191610338565b820191906000526020600020905b81548152906001019060200180831161031b57829003601f168201915b5050505050905085565b6001600160a01b0381811660009081526001602052604090205461010090041661037e5760405162461bcd60e51b81526004016101bc9061176e565b60016001600160a01b038216600090815260016020526040902060029081015460ff16908111156103bf57634e487b7160e01b600052602160045260246000fd5b14156103dd5760405162461bcd60e51b81526004016101bc906116ea565b61041f828260016040518060400160405280601981526020017f596f752061646d6973696f6e2077617320617070726f76656400000000000000815250611069565b5050565b600080546060918167ffffffffffffffff81111561045157634e487b7160e01b600052604160045260246000fd5b60405190808252806020026020018201604052801561048a57816020015b610477611170565b81526020019060019003908161046f5790505b50905060005b828110156106fe57600160008083815481106104bc57634e487b7160e01b600052603260045260246000fd5b60009182526020808320909101546001600160a01b031683528201929092526040908101909120815160a081019092528054829060ff16600181111561051257634e487b7160e01b600052602160045260246000fd5b600181111561053157634e487b7160e01b600052602160045260246000fd5b8152815461010090046001600160a01b0316602082015260018201805460409092019161055d90611830565b80601f016020809104026020016040519081016040528092919081815260200182805461058990611830565b80156105d65780601f106105ab576101008083540402835291602001916105d6565b820191906000526020600020905b8154815290600101906020018083116105b957829003601f168201915b505050918352505060028281015460209092019160ff169081111561060b57634e487b7160e01b600052602160045260246000fd5b600281111561062a57634e487b7160e01b600052602160045260246000fd5b815260200160038201805461063e90611830565b80601f016020809104026020016040519081016040528092919081815260200182805461066a90611830565b80156106b75780601f1061068c576101008083540402835291602001916106b7565b820191906000526020600020905b81548152906001019060200180831161069a57829003601f168201915b5050505050815250508282815181106106e057634e487b7160e01b600052603260045260246000fd5b602002602001018190525080806106f69061186b565b915050610490565b5091505090565b6001600160a01b03838116600090815260016020526040902054610100900416156107425760405162461bcd60e51b81526004016101bc906116a9565b60006040518060a0016040528083600181111561076f57634e487b7160e01b600052602160045260246000fd5b8152602001856001600160a01b031681526020018481526020018260028111156107a957634e487b7160e01b600052602160045260246000fd5b815260408051602081810183526000808352938101919091526001600160a01b038816835260019081905291208251815491929091839160ff1990911690838181111561080657634e487b7160e01b600052602160045260246000fd5b021790555060208281015182546001600160a01b0390911661010002610100600160a81b031990911617825560408301518051610849926001850192019061119d565b5060608201518160020160006101000a81548160ff0219169083600281111561088257634e487b7160e01b600052602160045260246000fd5b0217905550608082015180516108a291600384019160209091019061119d565b5050600080546001810182559080527f290decd9548b62a8d60345a988386fc84ba6bc95484008f6362f93160ef3e5630180546001600160a01b0319166001600160a01b038716179055506040517fb8ac9bc9c4487d87826db7ca5c949833d93090550c3c8b045660a4f12e75b9eb9061091f9085908490611596565b60405180910390a150505050565b610935611170565b6001600160a01b038281166000908152600160205260409020546101009004166109715760405162461bcd60e51b81526004016101bc906117ba565b6001600160a01b038216600090815260016020819052604091829020825160a0810190935280549091839160ff16908111156109bd57634e487b7160e01b600052602160045260246000fd5b60018111156109dc57634e487b7160e01b600052602160045260246000fd5b8152815461010090046001600160a01b03166020820152600182018054604090920191610a0890611830565b80601f0160208091040260200160405190810160405280929190818152602001828054610a3490611830565b8015610a815780601f10610a5657610100808354040283529160200191610a81565b820191906000526020600020905b815481529060010190602001808311610a6457829003601f168201915b505050918352505060028281015460209092019160ff1690811115610ab657634e487b7160e01b600052602160045260246000fd5b6002811115610ad557634e487b7160e01b600052602160045260246000fd5b8152602001600382018054610ae990611830565b80601f0160208091040260200160405190810160405280929190818152602001828054610b1590611830565b8015610b625780601f10610b3757610100808354040283529160200191610b62565b820191906000526020600020905b815481529060010190602001808311610b4557829003601f168201915b5050505050815250509050919050565b6001600160a01b03828116600090815260016020526040902054610100900416610bae5760405162461bcd60e51b81526004016101bc9061176e565b6001600160a01b038216600090815260016020526040902060029081015460ff1681811115610bed57634e487b7160e01b600052602160045260246000fd5b1415610c0b5760405162461bcd60e51b81526004016101bc90611672565b610c188383600284611069565b505050565b6001600160a01b03908116600090815260016020526040902054610100900416151590565b60008054606091805b82811015610ce9576001806000808481548110610c7857634e487b7160e01b600052603260045260246000fd5b60009182526020808320909101546001600160a01b03168352820192909252604001902060029081015460ff1690811115610cc357634e487b7160e01b600052602160045260246000fd5b1415610cd75781610cd38161186b565b9250505b80610ce18161186b565b915050610c4b565b5060008167ffffffffffffffff811115610d1357634e487b7160e01b600052604160045260246000fd5b604051908082528060200260200182016040528015610d4c57816020015b610d39611170565b815260200190600190039081610d315790505b5090506000805b8481108015610d625750600084115b1561105f576001806000808481548110610d8c57634e487b7160e01b600052603260045260246000fd5b60009182526020808320909101546001600160a01b03168352820192909252604001902060029081015460ff1690811115610dd757634e487b7160e01b600052602160045260246000fd5b141561104d5760016000808381548110610e0157634e487b7160e01b600052603260045260246000fd5b60009182526020808320909101546001600160a01b031683528201929092526040908101909120815160a081019092528054829060ff166001811115610e5757634e487b7160e01b600052602160045260246000fd5b6001811115610e7657634e487b7160e01b600052602160045260246000fd5b8152815461010090046001600160a01b03166020820152600182018054604090920191610ea290611830565b80601f0160208091040260200160405190810160405280929190818152602001828054610ece90611830565b8015610f1b5780601f10610ef057610100808354040283529160200191610f1b565b820191906000526020600020905b815481529060010190602001808311610efe57829003601f168201915b505050918352505060028281015460209092019160ff1690811115610f5057634e487b7160e01b600052602160045260246000fd5b6002811115610f6f57634e487b7160e01b600052602160045260246000fd5b8152602001600382018054610f8390611830565b80601f0160208091040260200160405190810160405280929190818152602001828054610faf90611830565b8015610ffc5780601f10610fd157610100808354040283529160200191610ffc565b820191906000526020600020905b815481529060010190602001808311610fdf57829003601f168201915b50505050508152505083838151811061102557634e487b7160e01b600052603260045260246000fd5b6020026020010181905250818061103b9061186b565b925050838061104990611819565b9450505b806110578161186b565b915050610d53565b5090935050505090565b6002546001600160a01b038581169116146110965760405162461bcd60e51b81526004016101bc90611721565b8160016000856001600160a01b03166001600160a01b0316815260200190815260200160002060020160006101000a81548160ff021916908360028111156110ee57634e487b7160e01b600052602160045260246000fd5b02179055506001600160a01b038316600090815260016020908152604090912082516111229260039092019184019061119d565b506001600160a01b03831660009081526001602081905260409182902091517fb8ac9bc9c4487d87826db7ca5c949833d93090550c3c8b045660a4f12e75b9eb9261091f92019085906115b8565b6040805160a081018252600080825260208201819052606092820183905282820152608081019190915290565b8280546111a990611830565b90600052602060002090601f0160209004810192826111cb5760008555611211565b82601f106111e457805160ff1916838001178555611211565b82800160010185558215611211579182015b828111156112115782518255916020019190600101906111f6565b5061121d929150611221565b5090565b5b8082111561121d5760008155600101611222565b80356001600160a01b03811681146101e657600080fd5b600082601f83011261125d578081fd5b813567ffffffffffffffff80821115611278576112786118b2565b604051601f8301601f19168101602001828111828210171561129c5761129c6118b2565b6040528281528483016020018610156112b3578384fd5b82602086016020830137918201602001929092529392505050565b6000602082840312156112df578081fd5b6112e882611236565b9392505050565b60008060408385031215611301578081fd5b61130a83611236565b915061131860208401611236565b90509250929050565b600080600060608486031215611335578081fd5b61133e84611236565b925061134c60208501611236565b9150604084013567ffffffffffffffff811115611367578182fd5b6113738682870161124d565b9150509250925092565b600080600060608486031215611391578283fd5b61139a84611236565b9250602084013567ffffffffffffffff8111156113b5578283fd5b6113c18682870161124d565b9250506040840135600281106113d5578182fd5b809150509250925092565b600281106113f0576113f061189c565b9052565b600381106113f0576113f061189c565b60008151808452815b818110156114295760208185018101518683018201520161140d565b8181111561143a5782602083870101525b50601f01601f19169290920160200192915050565b600061145c8383516113e0565b60018060a01b036020830151166020840152604082015160a0604085015261148760a0850182611404565b9050606083015161149b60608601826113f4565b50608083015184820360808601526114b38282611404565b95945050505050565b6000602080830181845280855180835260408601915060408482028701019250838701855b8281101561150f57603f198886030184526114fd85835161144f565b945092850192908501906001016114e1565b5092979650505050505050565b901515815260200190565b600061153382886113e0565b6001600160a01b038616602083015260a06040830181905261155790830186611404565b61156460608401866113f4565b82810360808401526115768185611404565b98975050505050505050565b6020810161159082846113f4565b92915050565b6000604082526115a96040830185611404565b90506112e860208301846113f4565b6040815282546000908190600281046001808316806115d857607f831692505b60208084108214156115f857634e487b7160e01b87526022600452602487fd5b6116058460408a01611810565b828015611619576001811461162a57611654565b60ff19871682528282019750611654565b6116338c611804565b895b8781101561164e57815484820152908601908401611635565b83019850505b50508596506116658189018a6113f4565b5050505050509392505050565b6020808252601f908201527f54686520636f6d70616e7920697320616c72656164792072656a656374656400604082015260600190565b60208082526021908201527f54686520636f6d70616e7920697320616c7265616479207265676973746572656040820152601960fa1b606082015260800190565b6020808252601f908201527f54686520636f6d70616e7920697320616c726561647920617070726f76656400604082015260600190565b6020808252602d908201527f596f75206d757374206265207468652061646d696e6973747261746f7220746f60408201526c206368616e676520737461746560981b606082015260800190565b6020808252602c908201527f54686520636f6d70616e7920646f65736e2774206861766520612070656e646960408201526b37339030b236b4b9b9b4b7b760a11b606082015260800190565b6020808252601d908201527f54686520636f6d70616e79206973206e6f742072656769737465726564000000604082015260600190565b6000602082526112e8602083018461144f565b60009081526020902090565b90815260200190565b60008161182857611828611886565b506000190190565b60028104600182168061184457607f821691505b6020821081141561186557634e487b7160e01b600052602260045260246000fd5b50919050565b600060001982141561187f5761187f611886565b5060010190565b634e487b7160e01b600052601160045260246000fd5b634e487b7160e01b600052602160045260246000fd5b634e487b7160e01b600052604160045260246000fdfea264697066735822122000ae0efd818a408464bcf9dc1784827dd34d94851f42a8356b516607e7c9bd1b64736f6c63430008000033",
  "linkReferences": {},
  "deployedLinkReferences": {}
}