{
  "_format": "hh-sol-artifact-1",
  "contractName": "AuditBook",
  "sourceName": "contracts/AuditBook.sol",
  "abi": [
    {
      "inputs": [],
      "stateMutability": "nonpayable",
      "type": "constructor"
    },
    {
      "anonymous": false,
      "inputs": [
        {
          "indexed": false,
          "internalType": "string",
          "name": "companyName",
          "type": "string"
        },
        {
          "indexed": false,
          "internalType": "enum AuditBook.StateType",
          "name": "actualState",
          "type": "uint8"
        }
      ],
      "name": "AuditCompanyStateChanged",
      "type": "event"
    },
    {
      "anonymous": false,
      "inputs": [
        {
          "components": [
            {
              "internalType": "uint256",
              "name": "id",
              "type": "uint256"
            },
            {
              "internalType": "address",
              "name": "auditCompanies",
              "type": "address"
            },
            {
              "internalType": "address",
              "name": "auditableCompanies",
              "type": "address"
            },
            {
              "internalType": "enum AuditBook.AuditState",
              "name": "state",
              "type": "uint8"
            },
            {
              "internalType": "string",
              "name": "finding",
              "type": "string"
            }
          ],
          "indexed": false,
          "internalType": "struct AuditBook.Audit",
          "name": "audit",
          "type": "tuple"
        }
      ],
      "name": "AuditSubmitted",
      "type": "event"
    },
    {
      "anonymous": false,
      "inputs": [
        {
          "components": [
            {
              "internalType": "uint256",
              "name": "id",
              "type": "uint256"
            },
            {
              "internalType": "address",
              "name": "auditCompanies",
              "type": "address"
            },
            {
              "internalType": "address",
              "name": "auditableCompanies",
              "type": "address"
            },
            {
              "internalType": "enum AuditBook.AuditState",
              "name": "state",
              "type": "uint8"
            },
            {
              "internalType": "string",
              "name": "finding",
              "type": "string"
            }
          ],
          "indexed": false,
          "internalType": "struct AuditBook.Audit",
          "name": "audit",
          "type": "tuple"
        }
      ],
      "name": "AuditSubmittedStateChanged",
      "type": "event"
    },
    {
      "anonymous": false,
      "inputs": [
        {
          "indexed": false,
          "internalType": "string",
          "name": "companyName",
          "type": "string"
        },
        {
          "indexed": false,
          "internalType": "enum AuditBook.StateType",
          "name": "actualState",
          "type": "uint8"
        }
      ],
      "name": "AuditableCompanyStateChanged",
      "type": "event"
    },
    {
      "inputs": [
        {
          "internalType": "address",
          "name": "_company",
          "type": "address"
        }
      ],
      "name": "ApproveAuditCompany",
      "outputs": [],
      "stateMutability": "nonpayable",
      "type": "function"
    },
    {
      "inputs": [
        {
          "internalType": "address",
          "name": "_company",
          "type": "address"
        }
      ],
      "name": "ApproveAuditableCompany",
      "outputs": [],
      "stateMutability": "nonpayable",
      "type": "function"
    },
    {
      "inputs": [
        {
          "internalType": "string",
          "name": "_companyName",
          "type": "string"
        }
      ],
      "name": "AuditCompanyRequestAdmision",
      "outputs": [],
      "stateMutability": "nonpayable",
      "type": "function"
    },
    {
      "inputs": [],
      "name": "AuditCompanyState",
      "outputs": [
        {
          "internalType": "enum AuditBook.StateType",
          "name": "",
          "type": "uint8"
        }
      ],
      "stateMutability": "view",
      "type": "function"
    },
    {
      "inputs": [
        {
          "internalType": "uint256",
          "name": "id",
          "type": "uint256"
        }
      ],
      "name": "AuditableCompanyApproveSubmittedAudit",
      "outputs": [],
      "stateMutability": "nonpayable",
      "type": "function"
    },
    {
      "inputs": [
        {
          "internalType": "uint256",
          "name": "id",
          "type": "uint256"
        }
      ],
      "name": "AuditableCompanyRejectSubmittedAudit",
      "outputs": [],
      "stateMutability": "nonpayable",
      "type": "function"
    },
    {
      "inputs": [
        {
          "internalType": "string",
          "name": "_companyName",
          "type": "string"
        }
      ],
      "name": "AuditableCompanyRequestAdmision",
      "outputs": [],
      "stateMutability": "nonpayable",
      "type": "function"
    },
    {
      "inputs": [],
      "name": "AuditableCompanyState",
      "outputs": [
        {
          "internalType": "enum AuditBook.StateType",
          "name": "",
          "type": "uint8"
        }
      ],
      "stateMutability": "view",
      "type": "function"
    },
    {
      "inputs": [],
      "name": "IsRegisteredAsAuditCompany",
      "outputs": [
        {
          "internalType": "bool",
          "name": "",
          "type": "bool"
        }
      ],
      "stateMutability": "view",
      "type": "function"
    },
    {
      "inputs": [],
      "name": "IsRegisteredAsAuditableCompany",
      "outputs": [
        {
          "internalType": "bool",
          "name": "",
          "type": "bool"
        }
      ],
      "stateMutability": "view",
      "type": "function"
    },
    {
      "inputs": [
        {
          "internalType": "address",
          "name": "_company",
          "type": "address"
        },
        {
          "internalType": "string",
          "name": "_message",
          "type": "string"
        }
      ],
      "name": "RejectAuditCompany",
      "outputs": [],
      "stateMutability": "nonpayable",
      "type": "function"
    },
    {
      "inputs": [
        {
          "internalType": "address",
          "name": "_company",
          "type": "address"
        },
        {
          "internalType": "string",
          "name": "_message",
          "type": "string"
        }
      ],
      "name": "RejectAuditableCompany",
      "outputs": [],
      "stateMutability": "nonpayable",
      "type": "function"
    },
    {
      "inputs": [
        {
          "internalType": "address",
          "name": "_auditableCompany",
          "type": "address"
        },
        {
          "internalType": "string",
          "name": "_finding",
          "type": "string"
        }
      ],
      "name": "SubmitAudit",
      "outputs": [],
      "stateMutability": "nonpayable",
      "type": "function"
    },
    {
      "inputs": [],
      "name": "admin",
      "outputs": [
        {
          "internalType": "address",
          "name": "",
          "type": "address"
        }
      ],
      "stateMutability": "view",
      "type": "function"
    },
    {
      "inputs": [],
      "name": "adminName",
      "outputs": [
        {
          "internalType": "string",
          "name": "",
          "type": "string"
        }
      ],
      "stateMutability": "view",
      "type": "function"
    },
    {
      "inputs": [
        {
          "internalType": "address",
          "name": "",
          "type": "address"
        }
      ],
      "name": "auditCompanies",
      "outputs": [
        {
          "internalType": "address",
          "name": "account",
          "type": "address"
        },
        {
          "internalType": "string",
          "name": "name",
          "type": "string"
        },
        {
          "internalType": "enum AuditBook.StateType",
          "name": "state",
          "type": "uint8"
        },
        {
          "internalType": "string",
          "name": "changeStateMessage",
          "type": "string"
        }
      ],
      "stateMutability": "view",
      "type": "function"
    },
    {
      "inputs": [
        {
          "internalType": "address",
          "name": "",
          "type": "address"
        }
      ],
      "name": "auditableCompanies",
      "outputs": [
        {
          "internalType": "address",
          "name": "account",
          "type": "address"
        },
        {
          "internalType": "string",
          "name": "name",
          "type": "string"
        },
        {
          "internalType": "enum AuditBook.StateType",
          "name": "state",
          "type": "uint8"
        },
        {
          "internalType": "string",
          "name": "changeStateMessage",
          "type": "string"
        }
      ],
      "stateMutability": "view",
      "type": "function"
    },
    {
      "inputs": [],
      "name": "getApprovedAuditableCompanies",
      "outputs": [
        {
          "components": [
            {
              "internalType": "address",
              "name": "account",
              "type": "address"
            },
            {
              "internalType": "string",
              "name": "name",
              "type": "string"
            },
            {
              "internalType": "enum AuditBook.StateType",
              "name": "state",
              "type": "uint8"
            },
            {
              "internalType": "string",
              "name": "changeStateMessage",
              "type": "string"
            },
            {
              "internalType": "uint256[]",
              "name": "auditReference",
              "type": "uint256[]"
            }
          ],
          "internalType": "struct AuditBook.Company[]",
          "name": "",
          "type": "tuple[]"
        }
      ],
      "stateMutability": "view",
      "type": "function"
    },
    {
      "inputs": [],
      "name": "getAuditCompanies",
      "outputs": [
        {
          "components": [
            {
              "internalType": "address",
              "name": "account",
              "type": "address"
            },
            {
              "internalType": "string",
              "name": "name",
              "type": "string"
            },
            {
              "internalType": "enum AuditBook.StateType",
              "name": "state",
              "type": "uint8"
            },
            {
              "internalType": "string",
              "name": "changeStateMessage",
              "type": "string"
            },
            {
              "internalType": "uint256[]",
              "name": "auditReference",
              "type": "uint256[]"
            }
          ],
          "internalType": "struct AuditBook.Company[]",
          "name": "",
          "type": "tuple[]"
        }
      ],
      "stateMutability": "view",
      "type": "function"
    },
    {
      "inputs": [],
      "name": "getAuditCompanyRegister",
      "outputs": [
        {
          "components": [
            {
              "internalType": "address",
              "name": "account",
              "type": "address"
            },
            {
              "internalType": "string",
              "name": "name",
              "type": "string"
            },
            {
              "internalType": "enum AuditBook.StateType",
              "name": "state",
              "type": "uint8"
            },
            {
              "internalType": "string",
              "name": "changeStateMessage",
              "type": "string"
            },
            {
              "internalType": "uint256[]",
              "name": "auditReference",
              "type": "uint256[]"
            }
          ],
          "internalType": "struct AuditBook.Company",
          "name": "",
          "type": "tuple"
        }
      ],
      "stateMutability": "view",
      "type": "function"
    },
    {
      "inputs": [],
      "name": "getAuditableCompanies",
      "outputs": [
        {
          "components": [
            {
              "internalType": "address",
              "name": "account",
              "type": "address"
            },
            {
              "internalType": "string",
              "name": "name",
              "type": "string"
            },
            {
              "internalType": "enum AuditBook.StateType",
              "name": "state",
              "type": "uint8"
            },
            {
              "internalType": "string",
              "name": "changeStateMessage",
              "type": "string"
            },
            {
              "internalType": "uint256[]",
              "name": "auditReference",
              "type": "uint256[]"
            }
          ],
          "internalType": "struct AuditBook.Company[]",
          "name": "",
          "type": "tuple[]"
        }
      ],
      "stateMutability": "view",
      "type": "function"
    },
    {
      "inputs": [],
      "name": "getAuditableCompanyRegister",
      "outputs": [
        {
          "components": [
            {
              "internalType": "address",
              "name": "account",
              "type": "address"
            },
            {
              "internalType": "string",
              "name": "name",
              "type": "string"
            },
            {
              "internalType": "enum AuditBook.StateType",
              "name": "state",
              "type": "uint8"
            },
            {
              "internalType": "string",
              "name": "changeStateMessage",
              "type": "string"
            },
            {
              "internalType": "uint256[]",
              "name": "auditReference",
              "type": "uint256[]"
            }
          ],
          "internalType": "struct AuditBook.Company",
          "name": "",
          "type": "tuple"
        }
      ],
      "stateMutability": "view",
      "type": "function"
    },
    {
      "inputs": [],
      "name": "getAuditableCompanySubmittedAudits",
      "outputs": [
        {
          "components": [
            {
              "internalType": "uint256",
              "name": "id",
              "type": "uint256"
            },
            {
              "internalType": "address",
              "name": "auditCompanies",
              "type": "address"
            },
            {
              "internalType": "address",
              "name": "auditableCompanies",
              "type": "address"
            },
            {
              "internalType": "enum AuditBook.AuditState",
              "name": "state",
              "type": "uint8"
            },
            {
              "internalType": "string",
              "name": "finding",
              "type": "string"
            }
          ],
          "internalType": "struct AuditBook.Audit[]",
          "name": "",
          "type": "tuple[]"
        }
      ],
      "stateMutability": "view",
      "type": "function"
    },
    {
      "inputs": [
        {
          "internalType": "string",
          "name": "_name",
          "type": "string"
        }
      ],
      "name": "setAdminName",
      "outputs": [],
      "stateMutability": "nonpayable",
      "type": "function"
    }
  ],
  "bytecode": "0x608060405234801561001057600080fd5b50600080546001600160a01b031916331781556006556130ea806100356000396000f3fe608060405234801561001057600080fd5b50600436106101585760003560e01c80639152351d116100c3578063a99165df1161007c578063a99165df146102ae578063c508ced4146102c1578063d54c93db146102d4578063e71df118146102e7578063f851a440146102fa578063fc2e495e1461030f57610158565b80639152351d1461023e5780639350e9a71461024657806397600a0b1461024e5780639ff72a9914610261578063a86a074814610276578063a8a23e391461029957610158565b80633fd55e71116101155780633fd55e71146101c85780634b035cb4146101db5780634b308aae146101ee5780634f0ff8b514610203578063727c1ee3146102165780638954ce461461022b57610158565b8063071780661461015d5780632264a2da1461017257806326e93dc41461019057806330410881146101a3578063345225d3146101b857806335afadce146101c0575b600080fd5b61017061016b3660046127e1565b610317565b005b61017a6106a5565b6040516101879190612b83565b60405180910390f35b61017061019e3660046127c0565b6106f4565b6101ab6107cc565b6040516101879190612b18565b6101ab610ab7565b6101ab610d9b565b6101706101d63660046127c0565b6111cf565b6101706101e9366004612868565b6112a4565b6101f66114b1565b6040516101879190612fd3565b6101706102113660046127e1565b6116eb565b61021e611791565b6040516101879190612b78565b61017061023936600461282d565b6117af565b61021e611959565b61017a611977565b61017061025c36600461282d565b6119c6565b610269611a03565b6040516101879190612a70565b6102896102843660046127c0565b611dd1565b6040516101879493929190612a20565b6102a1611f1d565b6040516101879190612b96565b6101706102bc36600461282d565b611fab565b6102896102cf3660046127c0565b612148565b6101706102e23660046127e1565b612174565b6101706102f5366004612868565b612216565b61030261234d565b6040516101879190612a0c565b6101f661235c565b336000908152600460205260409020546001600160a01b03166103555760405162461bcd60e51b815260040161034c90612c34565b60405180910390fd5b6001600160a01b038281166000908152600560205260409020541661038c5760405162461bcd60e51b815260040161034c90612d6b565b600133600090815260046020526040902060029081015460ff16908111156103c457634e487b7160e01b600052602160045260246000fd5b146103e15760405162461bcd60e51b815260040161034c90612f01565b60016001600160a01b038316600090815260056020526040902060029081015460ff169081111561042257634e487b7160e01b600052602160045260246000fd5b1461043f5760405162461bcd60e51b815260040161034c90612cae565b336001600160a01b03831614156104685760405162461bcd60e51b815260040161034c90612e82565b600680549060006104788361304f565b90915550506040805160a081018252600654815233602082019081526001600160a01b0385811693830193845260006060840181815260808501879052600780546001810182559252845160049092027fa66cc928b5edb82af9bd49922954155ab7b0942694bea4ce44661d9a8736c688810192835593517fa66cc928b5edb82af9bd49922954155ab7b0942694bea4ce44661d9a8736c689850180549185166001600160a01b031992831617905595517fa66cc928b5edb82af9bd49922954155ab7b0942694bea4ce44661d9a8736c68a90940180549490931693909516929092178082559351929391929160ff60a01b1916600160a01b83600281111561059157634e487b7160e01b600052602160045260246000fd5b0217905550608082015180516105b19160038401916020909101906125f2565b5050336000908152600460208190526040909120600654910191506105d890600190612fe6565b81546001818101845560009384526020808520909201929092556001600160a01b038516835260059052604090912060065460049091019161061991612fe6565b8154600181810184556000938452602090932001556006547fc7672526c3f11eb9ea24685867030c2f636233c796bf4f2dbe2982eb3e8b2ade916007916106609190612fe6565b8154811061067e57634e487b7160e01b600052603260045260246000fd5b90600052602060002090600402016040516106999190612f79565b60405180910390a15050565b336000908152600460205260408120546001600160a01b03166106da5760405162461bcd60e51b815260040161034c90612f42565b503360009081526004602052604090206002015460ff1690565b6001600160a01b038181166000908152600560205260409020541661072b5760405162461bcd60e51b815260040161034c90612e36565b60016001600160a01b038216600090815260056020526040902060029081015460ff169081111561076c57634e487b7160e01b600052602160045260246000fd5b141561078a5760405162461bcd60e51b815260040161034c90612c77565b6107c9600182600160405180604001604052806019815260200178165bdd4818591b5a5cda5bdb881dd85cc8185c1c1c9bdd9959603a1b8152506123d6565b50565b60025460609060008167ffffffffffffffff8111156107fb57634e487b7160e01b600052604160045260246000fd5b60405190808252806020026020018201604052801561083457816020015b610821612676565b8152602001906001900390816108195790505b50905060005b82811015610ab057600460006002838154811061086757634e487b7160e01b600052603260045260246000fd5b60009182526020808320909101546001600160a01b039081168452838201949094526040928301909120825160a0810190935280549093168252600183018054929392918401916108b790613014565b80601f01602080910402602001604051908101604052809291908181526020018280546108e390613014565b80156109305780601f1061090557610100808354040283529160200191610930565b820191906000526020600020905b81548152906001019060200180831161091357829003601f168201915b505050918352505060028281015460209092019160ff169081111561096557634e487b7160e01b600052602160045260246000fd5b600281111561098457634e487b7160e01b600052602160045260246000fd5b815260200160038201805461099890613014565b80601f01602080910402602001604051908101604052809291908181526020018280546109c490613014565b8015610a115780601f106109e657610100808354040283529160200191610a11565b820191906000526020600020905b8154815290600101906020018083116109f457829003601f168201915b5050505050815260200160048201805480602002602001604051908101604052809291908181526020018280548015610a6957602002820191906000526020600020905b815481526020019060010190808311610a55575b505050505081525050828281518110610a9257634e487b7160e01b600052603260045260246000fd5b60200260200101819052508080610aa89061304f565b91505061083a565b5091505090565b60035460609060008167ffffffffffffffff811115610ae657634e487b7160e01b600052604160045260246000fd5b604051908082528060200260200182016040528015610b1f57816020015b610b0c612676565b815260200190600190039081610b045790505b50905060005b82811015610ab0576005600060038381548110610b5257634e487b7160e01b600052603260045260246000fd5b60009182526020808320909101546001600160a01b039081168452838201949094526040928301909120825160a081019093528054909316825260018301805492939291840191610ba290613014565b80601f0160208091040260200160405190810160405280929190818152602001828054610bce90613014565b8015610c1b5780601f10610bf057610100808354040283529160200191610c1b565b820191906000526020600020905b815481529060010190602001808311610bfe57829003601f168201915b505050918352505060028281015460209092019160ff1690811115610c5057634e487b7160e01b600052602160045260246000fd5b6002811115610c6f57634e487b7160e01b600052602160045260246000fd5b8152602001600382018054610c8390613014565b80601f0160208091040260200160405190810160405280929190818152602001828054610caf90613014565b8015610cfc5780601f10610cd157610100808354040283529160200191610cfc565b820191906000526020600020905b815481529060010190602001808311610cdf57829003601f168201915b5050505050815260200160048201805480602002602001604051908101604052809291908181526020018280548015610d5457602002820191906000526020600020905b815481526020019060010190808311610d40575b505050505081525050828281518110610d7d57634e487b7160e01b600052603260045260246000fd5b60200260200101819052508080610d939061304f565b915050610b25565b6003546060906000805b82811015610e455760016005600060038481548110610dd457634e487b7160e01b600052603260045260246000fd5b60009182526020808320909101546001600160a01b03168352820192909252604001902060029081015460ff1690811115610e1f57634e487b7160e01b600052602160045260246000fd5b1415610e335781610e2f8161304f565b9250505b80610e3d8161304f565b915050610da5565b5060008167ffffffffffffffff811115610e6f57634e487b7160e01b600052604160045260246000fd5b604051908082528060200260200182016040528015610ea857816020015b610e95612676565b815260200190600190039081610e8d5790505b5090506000805b8481108015610ebe5750600084115b156111c55760016005600060038481548110610eea57634e487b7160e01b600052603260045260246000fd5b60009182526020808320909101546001600160a01b03168352820192909252604001902060029081015460ff1690811115610f3557634e487b7160e01b600052602160045260246000fd5b14156111b3576005600060038381548110610f6057634e487b7160e01b600052603260045260246000fd5b60009182526020808320909101546001600160a01b039081168452838201949094526040928301909120825160a081019093528054909316825260018301805492939291840191610fb090613014565b80601f0160208091040260200160405190810160405280929190818152602001828054610fdc90613014565b80156110295780601f10610ffe57610100808354040283529160200191611029565b820191906000526020600020905b81548152906001019060200180831161100c57829003601f168201915b505050918352505060028281015460209092019160ff169081111561105e57634e487b7160e01b600052602160045260246000fd5b600281111561107d57634e487b7160e01b600052602160045260246000fd5b815260200160038201805461109190613014565b80601f01602080910402602001604051908101604052809291908181526020018280546110bd90613014565b801561110a5780601f106110df5761010080835404028352916020019161110a565b820191906000526020600020905b8154815290600101906020018083116110ed57829003601f168201915b505050505081526020016004820180548060200260200160405190810160405280929190818152602001828054801561116257602002820191906000526020600020905b81548152602001906001019080831161114e575b50505050508152505083838151811061118b57634e487b7160e01b600052603260045260246000fd5b602002602001018190525081806111a19061304f565b92505083806111af90612ffd565b9450505b806111bd8161304f565b915050610eaf565b5090935050505090565b6001600160a01b03818116600090815260046020526040902054166112065760405162461bcd60e51b815260040161034c90612e36565b60016001600160a01b038216600090815260046020526040902060029081015460ff169081111561124757634e487b7160e01b600052602160045260246000fd5b14156112655760405162461bcd60e51b815260040161034c90612db2565b6107c9600082600160405180604001604052806019815260200178165bdd4818591b5a5cda5bdb881dd85cc8185c1c1c9bdd9959603a1b8152506123d6565b336000908152600560205260409020546001600160a01b03166112d95760405162461bcd60e51b815260040161034c90612c34565b600133600090815260056020526040902060029081015460ff169081111561131157634e487b7160e01b600052602160045260246000fd5b1461132e5760405162461bcd60e51b815260040161034c90612cae565b600754811061134f5760405162461bcd60e51b815260040161034c90612d34565b60006007828154811061137257634e487b7160e01b600052603260045260246000fd5b906000526020600020906004020160020160149054906101000a900460ff1660028111156113b057634e487b7160e01b600052602160045260246000fd5b146113cd5760405162461bcd60e51b815260040161034c90612eb9565b600260076113dc600184612fe6565b815481106113fa57634e487b7160e01b600052603260045260246000fd5b906000526020600020906004020160020160146101000a81548160ff0219169083600281111561143a57634e487b7160e01b600052602160045260246000fd5b02179055507f017d498afc9841db1d01c016ddcf220282972fb3ab8fe651ad862a2361544209600761146d600184612fe6565b8154811061148b57634e487b7160e01b600052603260045260246000fd5b90600052602060002090600402016040516114a69190612f79565b60405180910390a150565b6114b9612676565b336000908152600560205260409020546001600160a01b03166114ee5760405162461bcd60e51b815260040161034c90612c34565b33600090815260056020908152604091829020825160a0810190935280546001600160a01b03168352600181018054919284019161152b90613014565b80601f016020809104026020016040519081016040528092919081815260200182805461155790613014565b80156115a45780601f10611579576101008083540402835291602001916115a4565b820191906000526020600020905b81548152906001019060200180831161158757829003601f168201915b505050918352505060028281015460209092019160ff16908111156115d957634e487b7160e01b600052602160045260246000fd5b60028111156115f857634e487b7160e01b600052602160045260246000fd5b815260200160038201805461160c90613014565b80601f016020809104026020016040519081016040528092919081815260200182805461163890613014565b80156116855780601f1061165a57610100808354040283529160200191611685565b820191906000526020600020905b81548152906001019060200180831161166857829003601f168201915b50505050508152602001600482018054806020026020016040519081016040528092919081815260200182805480156116dd57602002820191906000526020600020905b8154815260200190600101908083116116c9575b505050505081525050905090565b6001600160a01b03828116600090815260056020526040902054166117225760405162461bcd60e51b815260040161034c90612e36565b6001600160a01b038216600090815260056020526040902060029081015460ff168181111561176157634e487b7160e01b600052602160045260246000fd5b141561177f5760405162461bcd60e51b815260040161034c90612c77565b61178d6001836002846123d6565b5050565b336000908152600560205260409020546001600160a01b0316151590565b336000908152600460205260409020546001600160a01b0316156117e55760405162461bcd60e51b815260040161034c90612cf3565b6040805160a0810182523381526020810183905260009160609190810183815260408051602080820183526000808352818501929092529282018590523381526004835220825181546001600160a01b0319166001600160a01b039091161781558282015180519192611860926001850192909101906125f2565b5060408201518160020160006101000a81548160ff0219169083600281111561189957634e487b7160e01b600052602160045260246000fd5b0217905550606082015180516118b99160038401916020909101906125f2565b50608082015180516118d59160048401916020909101906126a5565b5050600280546001810182556000919091527f405787fa12a823e0f2b7631cc41b3ba8828b3321ca811111fa75cd3aa3bb5ace0180546001600160a01b03191633179055506040517ff51009d782e1f2f1977dfd476d842cd72c5fff6a1ac96fdfbb65e507913cd1b49061194c9085908590612ba9565b60405180910390a1505050565b336000908152600460205260409020546001600160a01b0316151590565b336000908152600560205260408120546001600160a01b03166119ac5760405162461bcd60e51b815260040161034c90612f42565b503360009081526005602052604090206002015460ff1690565b6000546001600160a01b031633146119f05760405162461bcd60e51b815260040161034c90612be7565b805161178d9060019060208401906125f2565b336000908152600560205260409020546060906001600160a01b0316611a3b5760405162461bcd60e51b815260040161034c90612c34565b600133600090815260056020526040902060029081015460ff1690811115611a7357634e487b7160e01b600052602160045260246000fd5b14611a905760405162461bcd60e51b815260040161034c90612cae565b336000908152600560205260408120906004820190805b8254811015611b3757600060078281548110611ad357634e487b7160e01b600052603260045260246000fd5b906000526020600020906004020160020160149054906101000a900460ff166002811115611b1157634e487b7160e01b600052602160045260246000fd5b1415611b255781611b218161304f565b9250505b80611b2f8161304f565b915050611aa7565b5060008167ffffffffffffffff811115611b6157634e487b7160e01b600052604160045260246000fd5b604051908082528060200260200182016040528015611b9a57816020015b611b876126df565b815260200190600190039081611b7f5790505b5090506000805b845481108015611bb15750600084115b15611dc657600060078281548110611bd957634e487b7160e01b600052603260045260246000fd5b906000526020600020906004020160020160149054906101000a900460ff166002811115611c1757634e487b7160e01b600052602160045260246000fd5b1415611db45760078181548110611c3e57634e487b7160e01b600052603260045260246000fd5b60009182526020918290206040805160a0810182526004939093029091018054835260018101546001600160a01b03908116948401949094526002808201549485169284019290925291926060840191600160a01b90910460ff1690811115611cb757634e487b7160e01b600052602160045260246000fd5b6002811115611cd657634e487b7160e01b600052602160045260246000fd5b8152602001600382018054611cea90613014565b80601f0160208091040260200160405190810160405280929190818152602001828054611d1690613014565b8015611d635780601f10611d3857610100808354040283529160200191611d63565b820191906000526020600020905b815481529060010190602001808311611d4657829003601f168201915b505050505081525050838381518110611d8c57634e487b7160e01b600052603260045260246000fd5b60200260200101819052508180611da29061304f565b9250508380611db090612ffd565b9450505b80611dbe8161304f565b915050611ba1565b509094505050505090565b600560205260009081526040902080546001820180546001600160a01b039092169291611dfd90613014565b80601f0160208091040260200160405190810160405280929190818152602001828054611e2990613014565b8015611e765780601f10611e4b57610100808354040283529160200191611e76565b820191906000526020600020905b815481529060010190602001808311611e5957829003601f168201915b5050506002840154600385018054949560ff909216949193509150611e9a90613014565b80601f0160208091040260200160405190810160405280929190818152602001828054611ec690613014565b8015611f135780601f10611ee857610100808354040283529160200191611f13565b820191906000526020600020905b815481529060010190602001808311611ef657829003601f168201915b5050505050905084565b60018054611f2a90613014565b80601f0160208091040260200160405190810160405280929190818152602001828054611f5690613014565b8015611fa35780601f10611f7857610100808354040283529160200191611fa3565b820191906000526020600020905b815481529060010190602001808311611f8657829003601f168201915b505050505081565b336000908152600560205260409020546001600160a01b031615611fe15760405162461bcd60e51b815260040161034c90612cf3565b6040805160a0810182523381526020810183905260009160609190810183815260408051602080820183526000808352818501929092529282018590523381526005835220825181546001600160a01b0319166001600160a01b03909116178155828201518051919261205c926001850192909101906125f2565b5060408201518160020160006101000a81548160ff0219169083600281111561209557634e487b7160e01b600052602160045260246000fd5b0217905550606082015180516120b59160038401916020909101906125f2565b50608082015180516120d19160048401916020909101906126a5565b5050600380546001810182556000919091527fc2575a0e9e593c00f959f8c92f12db2869c3395a3b0502d05e2516446f71f85b0180546001600160a01b03191633179055506040517fcde7ad43021b1e42395b1d8739b5266838bc664a04d8b5886999251308dbbcbe9061194c9085908590612ba9565b600460205260009081526040902080546001820180546001600160a01b039092169291611dfd90613014565b6001600160a01b03828116600090815260046020526040902054166121ab5760405162461bcd60e51b815260040161034c90612e36565b6001600160a01b038216600090815260046020526040902060029081015460ff16818111156121ea57634e487b7160e01b600052602160045260246000fd5b14156122085760405162461bcd60e51b815260040161034c90612c77565b61178d6000836002846123d6565b336000908152600560205260409020546001600160a01b031661224b5760405162461bcd60e51b815260040161034c90612c34565b600133600090815260056020526040902060029081015460ff169081111561228357634e487b7160e01b600052602160045260246000fd5b146122a05760405162461bcd60e51b815260040161034c90612cae565b60075481106122c15760405162461bcd60e51b815260040161034c90612d34565b6000600782815481106122e457634e487b7160e01b600052603260045260246000fd5b906000526020600020906004020160020160149054906101000a900460ff16600281111561232257634e487b7160e01b600052602160045260246000fd5b1461233f5760405162461bcd60e51b815260040161034c90612eb9565b600160076113dc8284612fe6565b6000546001600160a01b031681565b612364612676565b336000908152600460205260409020546001600160a01b03166123995760405162461bcd60e51b815260040161034c90612c34565b33600090815260046020908152604091829020825160a0810190935280546001600160a01b03168352600181018054919284019161152b90613014565b6000546001600160a01b031633146124005760405162461bcd60e51b815260040161034c90612de9565b600084600181111561242257634e487b7160e01b600052602160045260246000fd5b141561250c576001600160a01b038316600090815260046020526040902060029081018054849260ff1990911690600190849081111561247257634e487b7160e01b600052602160045260246000fd5b02179055506001600160a01b038316600090815260046020908152604090912082516124a6926003909201918401906125f2565b507ff51009d782e1f2f1977dfd476d842cd72c5fff6a1ac96fdfbb65e507913cd1b460046000856001600160a01b03166001600160a01b03168152602001908152602001600020600101836040516124ff929190612bd4565b60405180910390a16125ec565b6001600160a01b038316600090815260056020526040902060029081018054849260ff1990911690600190849081111561255657634e487b7160e01b600052602160045260246000fd5b02179055506001600160a01b0383166000908152600560209081526040909120825161258a926003909201918401906125f2565b507fcde7ad43021b1e42395b1d8739b5266838bc664a04d8b5886999251308dbbcbe60056000856001600160a01b03166001600160a01b03168152602001908152602001600020600101836040516125e3929190612bd4565b60405180910390a15b50505050565b8280546125fe90613014565b90600052602060002090601f0160209004810192826126205760008555612666565b82601f1061263957805160ff1916838001178555612666565b82800160010185558215612666579182015b8281111561266657825182559160200191906001019061264b565b5061267292915061270e565b5090565b6040805160a0810182526000808252606060208301529091820190815260200160608152602001606081525090565b828054828255906000526020600020908101928215612666579160200282018281111561266657825182559160200191906001019061264b565b6040805160a0810182526000808252602082018190529181018290529060608201908152602001606081525090565b5b80821115612672576000815560010161270f565b80356001600160a01b038116811461273a57600080fd5b919050565b600082601f83011261274f578081fd5b813567ffffffffffffffff8082111561276a5761276a613080565b604051601f8301601f19168101602001828111828210171561278e5761278e613080565b6040528281528483016020018610156127a5578384fd5b82602086016020830137918201602001929092529392505050565b6000602082840312156127d1578081fd5b6127da82612723565b9392505050565b600080604083850312156127f3578081fd5b6127fc83612723565b9150602083013567ffffffffffffffff811115612817578182fd5b6128238582860161273f565b9150509250929050565b60006020828403121561283e578081fd5b813567ffffffffffffffff811115612854578182fd5b6128608482850161273f565b949350505050565b600060208284031215612879578081fd5b5035919050565b60008151808452815b818110156128a557602081850181015186830182015201612889565b818111156128b65782602083870101525b50601f01601f19169290920160200192915050565b8054600090600281046001808316806128e557607f831692505b602080841082141561290557634e487b7160e01b86526022600452602486fd5b83885281801561291c57600181146129305761295e565b60ff1986168983015260408901965061295e565b876000528160002060005b868110156129565781548b820185015290850190830161293b565b8a0183019750505b50505050505092915050565b600060018060a01b03825116835260208083015160a08286015261299160a0860182612880565b905060408401516129a181613096565b80604087015250606084015185820360608701526129bf8282612880565b6080868101518883039189019190915280518083529085019350859250908401905b80831015612a0157835182529284019260019290920191908401906129e1565b509695505050505050565b6001600160a01b0391909116815260200190565b6001600160a01b0385168152608060208201819052600090612a4490830186612880565b612a4d85613096565b8460408401528281036060840152612a658185612880565b979650505050505050565b60208082528251828201819052600091906040908185019080840286018301878501865b83811015612b0a57888303603f19018552815180518452878101516001600160a01b039081168986015287820151168785015260608082015160a09190612ada81613096565b90860152608091820151918501819052612af681860183612880565b968901969450505090860190600101612a94565b509098975050505050505050565b6000602080830181845280855180835260408601915060408482028701019250838701855b82811015612b6b57603f19888603018452612b5985835161296a565b94509285019290850190600101612b3d565b5092979650505050505050565b901515815260200190565b60208101612b9083613096565b91905290565b6000602082526127da6020830184612880565b600060408252612bbc6040830185612880565b9050612bc783613096565b8260208301529392505050565b600060408252612bbc60408301856128cb565b6020808252602d908201527f596f75206d757374206265207468652061646d696e6973747261746f7220746f60408201526c2073657420746865206e616d6560981b606082015260800190565b60208082526023908201527f54686520617564697420636f6d70616e79206973206e6f7420726567697374656040820152621c995960ea1b606082015260800190565b6020808252601f908201527f54686520636f6d70616e7920697320616c72656164792072656a656374656400604082015260600190565b60208082526025908201527f54686520617564697461626c6520636f6d70616e79206973206e6f74206170706040820152641c9bdd995960da1b606082015260800190565b60208082526021908201527f54686520636f6d70616e7920697320616c7265616479207265676973746572656040820152601960fa1b606082015260800190565b6020808252601b908201527f54686520617564697420696420646f6573206e6f742065786973740000000000604082015260600190565b60208082526027908201527f54686520617564697461626c6520636f6d70616e79206973206e6f74207265676040820152661a5cdd195c995960ca1b606082015260800190565b6020808252601f908201527f54686520636f6d70616e7920697320616c726561647920617070726f76656400604082015260600190565b6020808252602d908201527f596f75206d757374206265207468652061646d696e6973747261746f7220746f60408201526c206368616e676520737461746560981b606082015260800190565b6020808252602c908201527f54686520636f6d70616e7920646f65736e2774206861766520612070656e646960408201526b37339030b236b4b9b9b4b7b760a11b606082015260800190565b60208082526018908201527f596f752063616e277420617564697420796f757273656c660000000000000000604082015260600190565b60208082526028908201527f54686520617564697420697320616c726561647920617070726f766564206f206040820152671c995a9958dd195960c21b606082015260800190565b60208082526021908201527f54686520617564697420636f6d70616e79206973206e6f7420617070726f76656040820152601960fa1b606082015260800190565b6020808252601d908201527f54686520636f6d70616e79206973206e6f742072656769737465726564000000604082015260600190565b602080825282549082015260018201546001600160a01b0390811660408301526002830154908116606083015260009060a01c60ff16612fb881613096565b608083015260a0808301526127da60c08301600385016128cb565b6000602082526127da602083018461296a565b600082821015612ff857612ff861306a565b500390565b60008161300c5761300c61306a565b506000190190565b60028104600182168061302857607f821691505b6020821081141561304957634e487b7160e01b600052602260045260246000fd5b50919050565b60006000198214156130635761306361306a565b5060010190565b634e487b7160e01b600052601160045260246000fd5b634e487b7160e01b600052604160045260246000fd5b600381106107c957634e487b7160e01b600052602160045260246000fdfea26469706673582212209a9a92cb8c82961293d24da3a2eb6bfaf8dab694097294cc7437ccebdb790a0764736f6c63430008000033",
  "linkReferences": {},
  "deployedLinkReferences": {}
}