{
  "_format": "hh-sol-artifact-1",
  "contractName": "AuditBook",
  "sourceName": "contracts/AuditBook.sol",
  "abi": [
    {
      "inputs": [],
      "stateMutability": "nonpayable",
      "type": "constructor"
    },
    {
      "anonymous": false,
      "inputs": [
        {
          "indexed": false,
          "internalType": "string",
          "name": "companyName",
          "type": "string"
        },
        {
          "indexed": false,
          "internalType": "enum AuditBook.StateType",
          "name": "actualState",
          "type": "uint8"
        }
      ],
      "name": "AuditCompanyStateChanged",
      "type": "event"
    },
    {
      "anonymous": false,
      "inputs": [
        {
          "indexed": false,
          "internalType": "string",
          "name": "companyName",
          "type": "string"
        },
        {
          "indexed": false,
          "internalType": "enum AuditBook.StateType",
          "name": "actualState",
          "type": "uint8"
        }
      ],
      "name": "AuditableCompanyStateChanged",
      "type": "event"
    },
    {
      "inputs": [
        {
          "internalType": "address",
          "name": "_company",
          "type": "address"
        }
      ],
      "name": "ApproveAuditCompany",
      "outputs": [],
      "stateMutability": "nonpayable",
      "type": "function"
    },
    {
      "inputs": [
        {
          "internalType": "address",
          "name": "_company",
          "type": "address"
        }
      ],
      "name": "ApproveAuditableCompany",
      "outputs": [],
      "stateMutability": "nonpayable",
      "type": "function"
    },
    {
      "inputs": [
        {
          "internalType": "string",
          "name": "_companyName",
          "type": "string"
        }
      ],
      "name": "AuditCompanyRequestAdmision",
      "outputs": [],
      "stateMutability": "nonpayable",
      "type": "function"
    },
    {
      "inputs": [],
      "name": "AuditCompanyState",
      "outputs": [
        {
          "internalType": "enum AuditBook.StateType",
          "name": "",
          "type": "uint8"
        }
      ],
      "stateMutability": "view",
      "type": "function"
    },
    {
      "inputs": [
        {
          "internalType": "uint256",
          "name": "id",
          "type": "uint256"
        }
      ],
      "name": "AuditableCompanyApproveSubmittedAudit",
      "outputs": [],
      "stateMutability": "nonpayable",
      "type": "function"
    },
    {
      "inputs": [
        {
          "internalType": "uint256",
          "name": "id",
          "type": "uint256"
        }
      ],
      "name": "AuditableCompanyRejectSubmittedAudit",
      "outputs": [],
      "stateMutability": "nonpayable",
      "type": "function"
    },
    {
      "inputs": [
        {
          "internalType": "string",
          "name": "_companyName",
          "type": "string"
        }
      ],
      "name": "AuditableCompanyRequestAdmision",
      "outputs": [],
      "stateMutability": "nonpayable",
      "type": "function"
    },
    {
      "inputs": [],
      "name": "AuditableCompanyState",
      "outputs": [
        {
          "internalType": "enum AuditBook.StateType",
          "name": "",
          "type": "uint8"
        }
      ],
      "stateMutability": "view",
      "type": "function"
    },
    {
      "inputs": [],
      "name": "IsRegisteredAsAuditCompany",
      "outputs": [
        {
          "internalType": "bool",
          "name": "",
          "type": "bool"
        }
      ],
      "stateMutability": "view",
      "type": "function"
    },
    {
      "inputs": [],
      "name": "IsRegisteredAsAuditableCompany",
      "outputs": [
        {
          "internalType": "bool",
          "name": "",
          "type": "bool"
        }
      ],
      "stateMutability": "view",
      "type": "function"
    },
    {
      "inputs": [
        {
          "internalType": "address",
          "name": "_company",
          "type": "address"
        },
        {
          "internalType": "string",
          "name": "_message",
          "type": "string"
        }
      ],
      "name": "RejectAuditCompany",
      "outputs": [],
      "stateMutability": "nonpayable",
      "type": "function"
    },
    {
      "inputs": [
        {
          "internalType": "address",
          "name": "_company",
          "type": "address"
        },
        {
          "internalType": "string",
          "name": "_message",
          "type": "string"
        }
      ],
      "name": "RejectAuditableCompany",
      "outputs": [],
      "stateMutability": "nonpayable",
      "type": "function"
    },
    {
      "inputs": [
        {
          "internalType": "address",
          "name": "_auditableCompany",
          "type": "address"
        },
        {
          "internalType": "string",
          "name": "_finding",
          "type": "string"
        }
      ],
      "name": "SubmitAudit",
      "outputs": [],
      "stateMutability": "nonpayable",
      "type": "function"
    },
    {
      "inputs": [],
      "name": "admin",
      "outputs": [
        {
          "internalType": "address",
          "name": "",
          "type": "address"
        }
      ],
      "stateMutability": "view",
      "type": "function"
    },
    {
      "inputs": [],
      "name": "adminName",
      "outputs": [
        {
          "internalType": "string",
          "name": "",
          "type": "string"
        }
      ],
      "stateMutability": "view",
      "type": "function"
    },
    {
      "inputs": [
        {
          "internalType": "address",
          "name": "",
          "type": "address"
        }
      ],
      "name": "auditCompanies",
      "outputs": [
        {
          "internalType": "address",
          "name": "account",
          "type": "address"
        },
        {
          "internalType": "string",
          "name": "name",
          "type": "string"
        },
        {
          "internalType": "enum AuditBook.StateType",
          "name": "state",
          "type": "uint8"
        },
        {
          "internalType": "string",
          "name": "changeStateMessage",
          "type": "string"
        }
      ],
      "stateMutability": "view",
      "type": "function"
    },
    {
      "inputs": [
        {
          "internalType": "address",
          "name": "",
          "type": "address"
        }
      ],
      "name": "auditableCompanies",
      "outputs": [
        {
          "internalType": "address",
          "name": "account",
          "type": "address"
        },
        {
          "internalType": "string",
          "name": "name",
          "type": "string"
        },
        {
          "internalType": "enum AuditBook.StateType",
          "name": "state",
          "type": "uint8"
        },
        {
          "internalType": "string",
          "name": "changeStateMessage",
          "type": "string"
        }
      ],
      "stateMutability": "view",
      "type": "function"
    },
    {
      "inputs": [],
      "name": "getApprovedAuditableCompanies",
      "outputs": [
        {
          "components": [
            {
              "internalType": "address",
              "name": "account",
              "type": "address"
            },
            {
              "internalType": "string",
              "name": "name",
              "type": "string"
            },
            {
              "internalType": "enum AuditBook.StateType",
              "name": "state",
              "type": "uint8"
            },
            {
              "internalType": "string",
              "name": "changeStateMessage",
              "type": "string"
            },
            {
              "internalType": "uint256[]",
              "name": "auditReference",
              "type": "uint256[]"
            }
          ],
          "internalType": "struct AuditBook.Company[]",
          "name": "",
          "type": "tuple[]"
        }
      ],
      "stateMutability": "view",
      "type": "function"
    },
    {
      "inputs": [],
      "name": "getAuditCompanies",
      "outputs": [
        {
          "components": [
            {
              "internalType": "address",
              "name": "account",
              "type": "address"
            },
            {
              "internalType": "string",
              "name": "name",
              "type": "string"
            },
            {
              "internalType": "enum AuditBook.StateType",
              "name": "state",
              "type": "uint8"
            },
            {
              "internalType": "string",
              "name": "changeStateMessage",
              "type": "string"
            },
            {
              "internalType": "uint256[]",
              "name": "auditReference",
              "type": "uint256[]"
            }
          ],
          "internalType": "struct AuditBook.Company[]",
          "name": "",
          "type": "tuple[]"
        }
      ],
      "stateMutability": "view",
      "type": "function"
    },
    {
      "inputs": [],
      "name": "getAuditCompanyRegister",
      "outputs": [
        {
          "components": [
            {
              "internalType": "address",
              "name": "account",
              "type": "address"
            },
            {
              "internalType": "string",
              "name": "name",
              "type": "string"
            },
            {
              "internalType": "enum AuditBook.StateType",
              "name": "state",
              "type": "uint8"
            },
            {
              "internalType": "string",
              "name": "changeStateMessage",
              "type": "string"
            },
            {
              "internalType": "uint256[]",
              "name": "auditReference",
              "type": "uint256[]"
            }
          ],
          "internalType": "struct AuditBook.Company",
          "name": "",
          "type": "tuple"
        }
      ],
      "stateMutability": "view",
      "type": "function"
    },
    {
      "inputs": [],
      "name": "getAuditableCompanies",
      "outputs": [
        {
          "components": [
            {
              "internalType": "address",
              "name": "account",
              "type": "address"
            },
            {
              "internalType": "string",
              "name": "name",
              "type": "string"
            },
            {
              "internalType": "enum AuditBook.StateType",
              "name": "state",
              "type": "uint8"
            },
            {
              "internalType": "string",
              "name": "changeStateMessage",
              "type": "string"
            },
            {
              "internalType": "uint256[]",
              "name": "auditReference",
              "type": "uint256[]"
            }
          ],
          "internalType": "struct AuditBook.Company[]",
          "name": "",
          "type": "tuple[]"
        }
      ],
      "stateMutability": "view",
      "type": "function"
    },
    {
      "inputs": [],
      "name": "getAuditableCompanyRegister",
      "outputs": [
        {
          "components": [
            {
              "internalType": "address",
              "name": "account",
              "type": "address"
            },
            {
              "internalType": "string",
              "name": "name",
              "type": "string"
            },
            {
              "internalType": "enum AuditBook.StateType",
              "name": "state",
              "type": "uint8"
            },
            {
              "internalType": "string",
              "name": "changeStateMessage",
              "type": "string"
            },
            {
              "internalType": "uint256[]",
              "name": "auditReference",
              "type": "uint256[]"
            }
          ],
          "internalType": "struct AuditBook.Company",
          "name": "",
          "type": "tuple"
        }
      ],
      "stateMutability": "view",
      "type": "function"
    },
    {
      "inputs": [],
      "name": "getAuditableCompanySubmittedAudits",
      "outputs": [
        {
          "components": [
            {
              "internalType": "uint256",
              "name": "id",
              "type": "uint256"
            },
            {
              "internalType": "address",
              "name": "auditCompanies",
              "type": "address"
            },
            {
              "internalType": "address",
              "name": "auditableCompanies",
              "type": "address"
            },
            {
              "internalType": "enum AuditBook.AuditState",
              "name": "state",
              "type": "uint8"
            },
            {
              "internalType": "string",
              "name": "finding",
              "type": "string"
            }
          ],
          "internalType": "struct AuditBook.Audit[]",
          "name": "",
          "type": "tuple[]"
        }
      ],
      "stateMutability": "view",
      "type": "function"
    },
    {
      "inputs": [
        {
          "internalType": "string",
          "name": "_name",
          "type": "string"
        }
      ],
      "name": "setAdminName",
      "outputs": [],
      "stateMutability": "nonpayable",
      "type": "function"
    }
  ],
  "bytecode": "0x608060405234801561001057600080fd5b50336000806101000a81548173ffffffffffffffffffffffffffffffffffffffff021916908373ffffffffffffffffffffffffffffffffffffffff1602179055506000600681905550615de280620000696000396000f3fe608060405234801561001057600080fd5b50600436106101585760003560e01c80639152351d116100c3578063a99165df1161007c578063a99165df14610380578063c508ced41461039c578063d54c93db146103cf578063e71df118146103eb578063f851a44014610407578063fc2e495e1461042557610158565b80639152351d146102b95780639350e9a7146102d757806397600a0b146102f55780639ff72a9914610311578063a86a07481461032f578063a8a23e391461036257610158565b80633fd55e71116101155780633fd55e711461020d5780634b035cb4146102295780634b308aae146102455780634f0ff8b514610263578063727c1ee31461027f5780638954ce461461029d57610158565b8063071780661461015d5780632264a2da1461017957806326e93dc41461019757806330410881146101b3578063345225d3146101d157806335afadce146101ef575b600080fd5b61017760048036038101906101729190614c4d565b610443565b005b610181610b2a565b60405161018e919061570f565b60405180910390f35b6101b160048036038101906101ac9190614c24565b610c52565b005b6101bb610e6d565b6040516101c891906156d2565b60405180910390f35b6101d9611269565b6040516101e691906156d2565b60405180910390f35b6101f7611665565b60405161020491906156d2565b60405180910390f35b61022760048036038101906102229190614c24565b611d14565b005b610243600480360381019061023e9190614ce2565b611f2f565b005b61024d6122fe565b60405161025a919061596c565b60405180910390f35b61027d60048036038101906102789190614c4d565b612680565b005b610287612866565b60405161029491906156f4565b60405180910390f35b6102b760048036038101906102b29190614ca1565b6128ff565b005b6102c1612c2f565b6040516102ce91906156f4565b60405180910390f35b6102df612cc8565b6040516102ec919061570f565b60405180910390f35b61030f600480360381019061030a9190614ca1565b612df0565b005b610319612e98565b60405161032691906156b0565b60405180910390f35b61034960048036038101906103449190614c24565b6135ca565b604051610359949392919061565d565b60405180910390f35b61036a613737565b604051610377919061572a565b60405180910390f35b61039a60048036038101906103959190614ca1565b6137c5565b005b6103b660048036038101906103b19190614c24565b613af5565b6040516103c6949392919061565d565b60405180910390f35b6103e960048036038101906103e49190614c4d565b613c62565b005b61040560048036038101906104009190614ce2565b613e48565b005b61040f614217565b60405161041c9190615642565b60405180910390f35b61042d61423b565b60405161043a919061596c565b60405180910390f35b600073ffffffffffffffffffffffffffffffffffffffff16600460003373ffffffffffffffffffffffffffffffffffffffff1673ffffffffffffffffffffffffffffffffffffffff16815260200190815260200160002060000160009054906101000a900473ffffffffffffffffffffffffffffffffffffffff1673ffffffffffffffffffffffffffffffffffffffff161415610515576040517f08c379a000000000000000000000000000000000000000000000000000000000815260040161050c906157cc565b60405180910390fd5b600073ffffffffffffffffffffffffffffffffffffffff16600560008473ffffffffffffffffffffffffffffffffffffffff1673ffffffffffffffffffffffffffffffffffffffff16815260200190815260200160002060000160009054906101000a900473ffffffffffffffffffffffffffffffffffffffff1673ffffffffffffffffffffffffffffffffffffffff1614156105e7576040517f08c379a00000000000000000000000000000000000000000000000000000000081526004016105de9061586c565b60405180910390fd5b60016002811115610621577f4e487b7100000000000000000000000000000000000000000000000000000000600052602160045260246000fd5b600460003373ffffffffffffffffffffffffffffffffffffffff1673ffffffffffffffffffffffffffffffffffffffff16815260200190815260200160002060020160009054906101000a900460ff1660028111156106a9577f4e487b7100000000000000000000000000000000000000000000000000000000600052602160045260246000fd5b146106e9576040517f08c379a00000000000000000000000000000000000000000000000000000000081526004016106e09061592c565b60405180910390fd5b60016002811115610723577f4e487b7100000000000000000000000000000000000000000000000000000000600052602160045260246000fd5b600560008473ffffffffffffffffffffffffffffffffffffffff1673ffffffffffffffffffffffffffffffffffffffff16815260200190815260200160002060020160009054906101000a900460ff1660028111156107ab577f4e487b7100000000000000000000000000000000000000000000000000000000600052602160045260246000fd5b146107eb576040517f08c379a00000000000000000000000000000000000000000000000000000000081526004016107e29061580c565b60405180910390fd5b8173ffffffffffffffffffffffffffffffffffffffff163373ffffffffffffffffffffffffffffffffffffffff16141561085a576040517f08c379a0000000000000000000000000000000000000000000000000000000008152600401610851906158ec565b60405180910390fd5b6006600081548092919061086d90615c40565b919050555060076040518060a0016040528060065481526020013373ffffffffffffffffffffffffffffffffffffffff1681526020018473ffffffffffffffffffffffffffffffffffffffff168152602001600060028111156108f9577f4e487b7100000000000000000000000000000000000000000000000000000000600052602160045260246000fd5b81526020018381525090806001815401808255809150506001900390600052602060002090600402016000909190919091506000820151816000015560208201518160010160006101000a81548173ffffffffffffffffffffffffffffffffffffffff021916908373ffffffffffffffffffffffffffffffffffffffff16021790555060408201518160020160006101000a81548173ffffffffffffffffffffffffffffffffffffffff021916908373ffffffffffffffffffffffffffffffffffffffff16021790555060608201518160020160146101000a81548160ff02191690836002811115610a14577f4e487b7100000000000000000000000000000000000000000000000000000000600052602160045260246000fd5b02179055506080820151816003019080519060200190610a35929190614992565b505050600460003373ffffffffffffffffffffffffffffffffffffffff1673ffffffffffffffffffffffffffffffffffffffff1681526020019081526020016000206004016001600654610a899190615adc565b9080600181540180825580915050600190039060005260206000200160009091909190915055600560008373ffffffffffffffffffffffffffffffffffffffff1673ffffffffffffffffffffffffffffffffffffffff1681526020019081526020016000206004016001600654610b009190615adc565b90806001815401808255809150506001900390600052602060002001600090919091909150555050565b60008073ffffffffffffffffffffffffffffffffffffffff16600460003373ffffffffffffffffffffffffffffffffffffffff1673ffffffffffffffffffffffffffffffffffffffff16815260200190815260200160002060000160009054906101000a900473ffffffffffffffffffffffffffffffffffffffff1673ffffffffffffffffffffffffffffffffffffffff161415610bfd576040517f08c379a0000000000000000000000000000000000000000000000000000000008152600401610bf49061594c565b60405180910390fd5b600460003373ffffffffffffffffffffffffffffffffffffffff1673ffffffffffffffffffffffffffffffffffffffff16815260200190815260200160002060020160009054906101000a900460ff16905090565b600073ffffffffffffffffffffffffffffffffffffffff16600560008373ffffffffffffffffffffffffffffffffffffffff1673ffffffffffffffffffffffffffffffffffffffff16815260200190815260200160002060000160009054906101000a900473ffffffffffffffffffffffffffffffffffffffff1673ffffffffffffffffffffffffffffffffffffffff161415610d24576040517f08c379a0000000000000000000000000000000000000000000000000000000008152600401610d1b906158cc565b60405180910390fd5b60016002811115610d5e577f4e487b7100000000000000000000000000000000000000000000000000000000600052602160045260246000fd5b600560008373ffffffffffffffffffffffffffffffffffffffff1673ffffffffffffffffffffffffffffffffffffffff16815260200190815260200160002060020160009054906101000a900460ff166002811115610de6577f4e487b7100000000000000000000000000000000000000000000000000000000600052602160045260246000fd5b1415610e27576040517f08c379a0000000000000000000000000000000000000000000000000000000008152600401610e1e906157ec565b60405180910390fd5b610e6a60018260016040518060400160405280601981526020017f596f752061646d6973696f6e2077617320617070726f766564000000000000008152506145bd565b50565b60606000600280549050905060008167ffffffffffffffff811115610ebb577f4e487b7100000000000000000000000000000000000000000000000000000000600052604160045260246000fd5b604051908082528060200260200182016040528015610ef457816020015b610ee1614a18565b815260200190600190039081610ed95790505b50905060005b82811015611260576004600060028381548110610f40577f4e487b7100000000000000000000000000000000000000000000000000000000600052603260045260246000fd5b9060005260206000200160009054906101000a900473ffffffffffffffffffffffffffffffffffffffff1673ffffffffffffffffffffffffffffffffffffffff1673ffffffffffffffffffffffffffffffffffffffff1681526020019081526020016000206040518060a00160405290816000820160009054906101000a900473ffffffffffffffffffffffffffffffffffffffff1673ffffffffffffffffffffffffffffffffffffffff1673ffffffffffffffffffffffffffffffffffffffff16815260200160018201805461101690615c0e565b80601f016020809104026020016040519081016040528092919081815260200182805461104290615c0e565b801561108f5780601f106110645761010080835404028352916020019161108f565b820191906000526020600020905b81548152906001019060200180831161107257829003601f168201915b505050505081526020016002820160009054906101000a900460ff1660028111156110e3577f4e487b7100000000000000000000000000000000000000000000000000000000600052602160045260246000fd5b600281111561111b577f4e487b7100000000000000000000000000000000000000000000000000000000600052602160045260246000fd5b815260200160038201805461112f90615c0e565b80601f016020809104026020016040519081016040528092919081815260200182805461115b90615c0e565b80156111a85780601f1061117d576101008083540402835291602001916111a8565b820191906000526020600020905b81548152906001019060200180831161118b57829003601f168201915b505050505081526020016004820180548060200260200160405190810160405280929190818152602001828054801561120057602002820191906000526020600020905b8154815260200190600101908083116111ec575b505050505081525050828281518110611242577f4e487b7100000000000000000000000000000000000000000000000000000000600052603260045260246000fd5b6020026020010181905250808061125890615c40565b915050610efa565b50809250505090565b60606000600380549050905060008167ffffffffffffffff8111156112b7577f4e487b7100000000000000000000000000000000000000000000000000000000600052604160045260246000fd5b6040519080825280602002602001820160405280156112f057816020015b6112dd614a18565b8152602001906001900390816112d55790505b50905060005b8281101561165c57600560006003838154811061133c577f4e487b7100000000000000000000000000000000000000000000000000000000600052603260045260246000fd5b9060005260206000200160009054906101000a900473ffffffffffffffffffffffffffffffffffffffff1673ffffffffffffffffffffffffffffffffffffffff1673ffffffffffffffffffffffffffffffffffffffff1681526020019081526020016000206040518060a00160405290816000820160009054906101000a900473ffffffffffffffffffffffffffffffffffffffff1673ffffffffffffffffffffffffffffffffffffffff1673ffffffffffffffffffffffffffffffffffffffff16815260200160018201805461141290615c0e565b80601f016020809104026020016040519081016040528092919081815260200182805461143e90615c0e565b801561148b5780601f106114605761010080835404028352916020019161148b565b820191906000526020600020905b81548152906001019060200180831161146e57829003601f168201915b505050505081526020016002820160009054906101000a900460ff1660028111156114df577f4e487b7100000000000000000000000000000000000000000000000000000000600052602160045260246000fd5b6002811115611517577f4e487b7100000000000000000000000000000000000000000000000000000000600052602160045260246000fd5b815260200160038201805461152b90615c0e565b80601f016020809104026020016040519081016040528092919081815260200182805461155790615c0e565b80156115a45780601f10611579576101008083540402835291602001916115a4565b820191906000526020600020905b81548152906001019060200180831161158757829003601f168201915b50505050508152602001600482018054806020026020016040519081016040528092919081815260200182805480156115fc57602002820191906000526020600020905b8154815260200190600101908083116115e8575b50505050508152505082828151811061163e577f4e487b7100000000000000000000000000000000000000000000000000000000600052603260045260246000fd5b6020026020010181905250808061165490615c40565b9150506112f6565b50809250505090565b6060600060038054905090506000805b828110156117cb57600160028111156116b7577f4e487b7100000000000000000000000000000000000000000000000000000000600052602160045260246000fd5b60056000600384815481106116f5577f4e487b7100000000000000000000000000000000000000000000000000000000600052603260045260246000fd5b9060005260206000200160009054906101000a900473ffffffffffffffffffffffffffffffffffffffff1673ffffffffffffffffffffffffffffffffffffffff1673ffffffffffffffffffffffffffffffffffffffff16815260200190815260200160002060020160009054906101000a900460ff1660028111156117a3577f4e487b7100000000000000000000000000000000000000000000000000000000600052602160045260246000fd5b14156117b85781806117b490615c40565b9250505b80806117c390615c40565b915050611675565b5060008167ffffffffffffffff81111561180e577f4e487b7100000000000000000000000000000000000000000000000000000000600052604160045260246000fd5b60405190808252806020026020018201604052801561184757816020015b611834614a18565b81526020019060019003908161182c5790505b5090506000805b848110801561185d5750600084115b15611d09576001600281111561189c577f4e487b7100000000000000000000000000000000000000000000000000000000600052602160045260246000fd5b60056000600384815481106118da577f4e487b7100000000000000000000000000000000000000000000000000000000600052603260045260246000fd5b9060005260206000200160009054906101000a900473ffffffffffffffffffffffffffffffffffffffff1673ffffffffffffffffffffffffffffffffffffffff1673ffffffffffffffffffffffffffffffffffffffff16815260200190815260200160002060020160009054906101000a900460ff166002811115611988577f4e487b7100000000000000000000000000000000000000000000000000000000600052602160045260246000fd5b1415611cf65760056000600383815481106119cc577f4e487b7100000000000000000000000000000000000000000000000000000000600052603260045260246000fd5b9060005260206000200160009054906101000a900473ffffffffffffffffffffffffffffffffffffffff1673ffffffffffffffffffffffffffffffffffffffff1673ffffffffffffffffffffffffffffffffffffffff1681526020019081526020016000206040518060a00160405290816000820160009054906101000a900473ffffffffffffffffffffffffffffffffffffffff1673ffffffffffffffffffffffffffffffffffffffff1673ffffffffffffffffffffffffffffffffffffffff168152602001600182018054611aa290615c0e565b80601f0160208091040260200160405190810160405280929190818152602001828054611ace90615c0e565b8015611b1b5780601f10611af057610100808354040283529160200191611b1b565b820191906000526020600020905b815481529060010190602001808311611afe57829003601f168201915b505050505081526020016002820160009054906101000a900460ff166002811115611b6f577f4e487b7100000000000000000000000000000000000000000000000000000000600052602160045260246000fd5b6002811115611ba7577f4e487b7100000000000000000000000000000000000000000000000000000000600052602160045260246000fd5b8152602001600382018054611bbb90615c0e565b80601f0160208091040260200160405190810160405280929190818152602001828054611be790615c0e565b8015611c345780601f10611c0957610100808354040283529160200191611c34565b820191906000526020600020905b815481529060010190602001808311611c1757829003601f168201915b5050505050815260200160048201805480602002602001604051908101604052809291908181526020018280548015611c8c57602002820191906000526020600020905b815481526020019060010190808311611c78575b505050505081525050838381518110611cce577f4e487b7100000000000000000000000000000000000000000000000000000000600052603260045260246000fd5b60200260200101819052508180611ce490615c40565b9250508380611cf290615be4565b9450505b8080611d0190615c40565b91505061184e565b508194505050505090565b600073ffffffffffffffffffffffffffffffffffffffff16600460008373ffffffffffffffffffffffffffffffffffffffff1673ffffffffffffffffffffffffffffffffffffffff16815260200190815260200160002060000160009054906101000a900473ffffffffffffffffffffffffffffffffffffffff1673ffffffffffffffffffffffffffffffffffffffff161415611de6576040517f08c379a0000000000000000000000000000000000000000000000000000000008152600401611ddd906158cc565b60405180910390fd5b60016002811115611e20577f4e487b7100000000000000000000000000000000000000000000000000000000600052602160045260246000fd5b600460008373ffffffffffffffffffffffffffffffffffffffff1673ffffffffffffffffffffffffffffffffffffffff16815260200190815260200160002060020160009054906101000a900460ff166002811115611ea8577f4e487b7100000000000000000000000000000000000000000000000000000000600052602160045260246000fd5b1415611ee9576040517f08c379a0000000000000000000000000000000000000000000000000000000008152600401611ee09061588c565b60405180910390fd5b611f2c60008260016040518060400160405280601981526020017f596f752061646d6973696f6e2077617320617070726f766564000000000000008152506145bd565b50565b600073ffffffffffffffffffffffffffffffffffffffff16600560003373ffffffffffffffffffffffffffffffffffffffff1673ffffffffffffffffffffffffffffffffffffffff16815260200190815260200160002060000160009054906101000a900473ffffffffffffffffffffffffffffffffffffffff1673ffffffffffffffffffffffffffffffffffffffff161415612001576040517f08c379a0000000000000000000000000000000000000000000000000000000008152600401611ff8906157cc565b60405180910390fd5b6001600281111561203b577f4e487b7100000000000000000000000000000000000000000000000000000000600052602160045260246000fd5b600560003373ffffffffffffffffffffffffffffffffffffffff1673ffffffffffffffffffffffffffffffffffffffff16815260200190815260200160002060020160009054906101000a900460ff1660028111156120c3577f4e487b7100000000000000000000000000000000000000000000000000000000600052602160045260246000fd5b14612103576040517f08c379a00000000000000000000000000000000000000000000000000000000081526004016120fa9061580c565b60405180910390fd5b600780549050811061214a576040517f08c379a00000000000000000000000000000000000000000000000000000000081526004016121419061584c565b60405180910390fd5b60006002811115612184577f4e487b7100000000000000000000000000000000000000000000000000000000600052602160045260246000fd5b600782815481106121be577f4e487b7100000000000000000000000000000000000000000000000000000000600052603260045260246000fd5b906000526020600020906004020160020160149054906101000a900460ff166002811115612215577f4e487b7100000000000000000000000000000000000000000000000000000000600052602160045260246000fd5b14612255576040517f08c379a000000000000000000000000000000000000000000000000000000000815260040161224c9061590c565b60405180910390fd5b600260076001836122669190615adc565b8154811061229d577f4e487b7100000000000000000000000000000000000000000000000000000000600052603260045260246000fd5b906000526020600020906004020160020160146101000a81548160ff021916908360028111156122f6577f4e487b7100000000000000000000000000000000000000000000000000000000600052602160045260246000fd5b021790555050565b612306614a18565b600073ffffffffffffffffffffffffffffffffffffffff16600560003373ffffffffffffffffffffffffffffffffffffffff1673ffffffffffffffffffffffffffffffffffffffff16815260200190815260200160002060000160009054906101000a900473ffffffffffffffffffffffffffffffffffffffff1673ffffffffffffffffffffffffffffffffffffffff1614156123d8576040517f08c379a00000000000000000000000000000000000000000000000000000000081526004016123cf906157cc565b60405180910390fd5b600560003373ffffffffffffffffffffffffffffffffffffffff1673ffffffffffffffffffffffffffffffffffffffff1681526020019081526020016000206040518060a00160405290816000820160009054906101000a900473ffffffffffffffffffffffffffffffffffffffff1673ffffffffffffffffffffffffffffffffffffffff1673ffffffffffffffffffffffffffffffffffffffff16815260200160018201805461248890615c0e565b80601f01602080910402602001604051908101604052809291908181526020018280546124b490615c0e565b80156125015780601f106124d657610100808354040283529160200191612501565b820191906000526020600020905b8154815290600101906020018083116124e457829003601f168201915b505050505081526020016002820160009054906101000a900460ff166002811115612555577f4e487b7100000000000000000000000000000000000000000000000000000000600052602160045260246000fd5b600281111561258d577f4e487b7100000000000000000000000000000000000000000000000000000000600052602160045260246000fd5b81526020016003820180546125a190615c0e565b80601f01602080910402602001604051908101604052809291908181526020018280546125cd90615c0e565b801561261a5780601f106125ef5761010080835404028352916020019161261a565b820191906000526020600020905b8154815290600101906020018083116125fd57829003601f168201915b505050505081526020016004820180548060200260200160405190810160405280929190818152602001828054801561267257602002820191906000526020600020905b81548152602001906001019080831161265e575b505050505081525050905090565b600073ffffffffffffffffffffffffffffffffffffffff16600560008473ffffffffffffffffffffffffffffffffffffffff1673ffffffffffffffffffffffffffffffffffffffff16815260200190815260200160002060000160009054906101000a900473ffffffffffffffffffffffffffffffffffffffff1673ffffffffffffffffffffffffffffffffffffffff161415612752576040517f08c379a0000000000000000000000000000000000000000000000000000000008152600401612749906158cc565b60405180910390fd5b60028081111561278b577f4e487b7100000000000000000000000000000000000000000000000000000000600052602160045260246000fd5b600560008473ffffffffffffffffffffffffffffffffffffffff1673ffffffffffffffffffffffffffffffffffffffff16815260200190815260200160002060020160009054906101000a900460ff166002811115612813577f4e487b7100000000000000000000000000000000000000000000000000000000600052602160045260246000fd5b1415612854576040517f08c379a000000000000000000000000000000000000000000000000000000000815260040161284b906157ec565b60405180910390fd5b6128626001836002846145bd565b5050565b60008073ffffffffffffffffffffffffffffffffffffffff16600560003373ffffffffffffffffffffffffffffffffffffffff1673ffffffffffffffffffffffffffffffffffffffff16815260200190815260200160002060000160009054906101000a900473ffffffffffffffffffffffffffffffffffffffff1673ffffffffffffffffffffffffffffffffffffffff161415905090565b600073ffffffffffffffffffffffffffffffffffffffff16600460003373ffffffffffffffffffffffffffffffffffffffff1673ffffffffffffffffffffffffffffffffffffffff16815260200190815260200160002060000160009054906101000a900473ffffffffffffffffffffffffffffffffffffffff1673ffffffffffffffffffffffffffffffffffffffff16146129d0576040517f08c379a00000000000000000000000000000000000000000000000000000000081526004016129c79061582c565b60405180910390fd5b600060606040518060a001604052803373ffffffffffffffffffffffffffffffffffffffff168152602001848152602001836002811115612a3a577f4e487b7100000000000000000000000000000000000000000000000000000000600052602160045260246000fd5b815260200160405180602001604052806000815250815260200182815250600460003373ffffffffffffffffffffffffffffffffffffffff1673ffffffffffffffffffffffffffffffffffffffff16815260200190815260200160002060008201518160000160006101000a81548173ffffffffffffffffffffffffffffffffffffffff021916908373ffffffffffffffffffffffffffffffffffffffff1602179055506020820151816001019080519060200190612afa929190614992565b5060408201518160020160006101000a81548160ff02191690836002811115612b4c577f4e487b7100000000000000000000000000000000000000000000000000000000600052602160045260246000fd5b02179055506060820151816003019080519060200190612b6d929190614992565b506080820151816004019080519060200190612b8a929190614a95565b509050506002339080600181540180825580915050600190039060005260206000200160009091909190916101000a81548173ffffffffffffffffffffffffffffffffffffffff021916908373ffffffffffffffffffffffffffffffffffffffff1602179055507ff51009d782e1f2f1977dfd476d842cd72c5fff6a1ac96fdfbb65e507913cd1b48383604051612c2292919061574c565b60405180910390a1505050565b60008073ffffffffffffffffffffffffffffffffffffffff16600460003373ffffffffffffffffffffffffffffffffffffffff1673ffffffffffffffffffffffffffffffffffffffff16815260200190815260200160002060000160009054906101000a900473ffffffffffffffffffffffffffffffffffffffff1673ffffffffffffffffffffffffffffffffffffffff161415905090565b60008073ffffffffffffffffffffffffffffffffffffffff16600560003373ffffffffffffffffffffffffffffffffffffffff1673ffffffffffffffffffffffffffffffffffffffff16815260200190815260200160002060000160009054906101000a900473ffffffffffffffffffffffffffffffffffffffff1673ffffffffffffffffffffffffffffffffffffffff161415612d9b576040517f08c379a0000000000000000000000000000000000000000000000000000000008152600401612d929061594c565b60405180910390fd5b600560003373ffffffffffffffffffffffffffffffffffffffff1673ffffffffffffffffffffffffffffffffffffffff16815260200190815260200160002060020160009054906101000a900460ff16905090565b60008054906101000a900473ffffffffffffffffffffffffffffffffffffffff1673ffffffffffffffffffffffffffffffffffffffff163373ffffffffffffffffffffffffffffffffffffffff1614612e7e576040517f08c379a0000000000000000000000000000000000000000000000000000000008152600401612e75906157ac565b60405180910390fd5b8060019080519060200190612e94929190614992565b5050565b6060600073ffffffffffffffffffffffffffffffffffffffff16600560003373ffffffffffffffffffffffffffffffffffffffff1673ffffffffffffffffffffffffffffffffffffffff16815260200190815260200160002060000160009054906101000a900473ffffffffffffffffffffffffffffffffffffffff1673ffffffffffffffffffffffffffffffffffffffff161415612f6c576040517f08c379a0000000000000000000000000000000000000000000000000000000008152600401612f63906157cc565b60405180910390fd5b60016002811115612fa6577f4e487b7100000000000000000000000000000000000000000000000000000000600052602160045260246000fd5b600560003373ffffffffffffffffffffffffffffffffffffffff1673ffffffffffffffffffffffffffffffffffffffff16815260200190815260200160002060020160009054906101000a900460ff16600281111561302e577f4e487b7100000000000000000000000000000000000000000000000000000000600052602160045260246000fd5b1461306e576040517f08c379a00000000000000000000000000000000000000000000000000000000081526004016130659061580c565b60405180910390fd5b6000600560003373ffffffffffffffffffffffffffffffffffffffff1673ffffffffffffffffffffffffffffffffffffffff168152602001908152602001600020905060008160040190506000805b82805490508110156131bc5760006002811115613103577f4e487b7100000000000000000000000000000000000000000000000000000000600052602160045260246000fd5b6007828154811061313d577f4e487b7100000000000000000000000000000000000000000000000000000000600052603260045260246000fd5b906000526020600020906004020160020160149054906101000a900460ff166002811115613194577f4e487b7100000000000000000000000000000000000000000000000000000000600052602160045260246000fd5b14156131a95781806131a590615c40565b9250505b80806131b490615c40565b9150506130bd565b5060008167ffffffffffffffff8111156131ff577f4e487b7100000000000000000000000000000000000000000000000000000000600052604160045260246000fd5b60405190808252806020026020018201604052801561323857816020015b613225614ae2565b81526020019060019003908161321d5790505b5090506000805b8480549050811080156132525750600084115b156135be5760006002811115613291577f4e487b7100000000000000000000000000000000000000000000000000000000600052602160045260246000fd5b600782815481106132cb577f4e487b7100000000000000000000000000000000000000000000000000000000600052603260045260246000fd5b906000526020600020906004020160020160149054906101000a900460ff166002811115613322577f4e487b7100000000000000000000000000000000000000000000000000000000600052602160045260246000fd5b14156135ab5760078181548110613362577f4e487b7100000000000000000000000000000000000000000000000000000000600052603260045260246000fd5b90600052602060002090600402016040518060a0016040529081600082015481526020016001820160009054906101000a900473ffffffffffffffffffffffffffffffffffffffff1673ffffffffffffffffffffffffffffffffffffffff1673ffffffffffffffffffffffffffffffffffffffff1681526020016002820160009054906101000a900473ffffffffffffffffffffffffffffffffffffffff1673ffffffffffffffffffffffffffffffffffffffff1673ffffffffffffffffffffffffffffffffffffffff1681526020016002820160149054906101000a900460ff16600281111561347c577f4e487b7100000000000000000000000000000000000000000000000000000000600052602160045260246000fd5b60028111156134b4577f4e487b7100000000000000000000000000000000000000000000000000000000600052602160045260246000fd5b81526020016003820180546134c890615c0e565b80601f01602080910402602001604051908101604052809291908181526020018280546134f490615c0e565b80156135415780601f1061351657610100808354040283529160200191613541565b820191906000526020600020905b81548152906001019060200180831161352457829003601f168201915b505050505081525050838381518110613583577f4e487b7100000000000000000000000000000000000000000000000000000000600052603260045260246000fd5b6020026020010181905250818061359990615c40565b92505083806135a790615be4565b9450505b80806135b690615c40565b91505061323f565b50819550505050505090565b60056020528060005260406000206000915090508060000160009054906101000a900473ffffffffffffffffffffffffffffffffffffffff169080600101805461361390615c0e565b80601f016020809104026020016040519081016040528092919081815260200182805461363f90615c0e565b801561368c5780601f106136615761010080835404028352916020019161368c565b820191906000526020600020905b81548152906001019060200180831161366f57829003601f168201915b5050505050908060020160009054906101000a900460ff16908060030180546136b490615c0e565b80601f01602080910402602001604051908101604052809291908181526020018280546136e090615c0e565b801561372d5780601f106137025761010080835404028352916020019161372d565b820191906000526020600020905b81548152906001019060200180831161371057829003601f168201915b5050505050905084565b6001805461374490615c0e565b80601f016020809104026020016040519081016040528092919081815260200182805461377090615c0e565b80156137bd5780601f10613792576101008083540402835291602001916137bd565b820191906000526020600020905b8154815290600101906020018083116137a057829003601f168201915b505050505081565b600073ffffffffffffffffffffffffffffffffffffffff16600560003373ffffffffffffffffffffffffffffffffffffffff1673ffffffffffffffffffffffffffffffffffffffff16815260200190815260200160002060000160009054906101000a900473ffffffffffffffffffffffffffffffffffffffff1673ffffffffffffffffffffffffffffffffffffffff1614613896576040517f08c379a000000000000000000000000000000000000000000000000000000000815260040161388d9061582c565b60405180910390fd5b600060606040518060a001604052803373ffffffffffffffffffffffffffffffffffffffff168152602001848152602001836002811115613900577f4e487b7100000000000000000000000000000000000000000000000000000000600052602160045260246000fd5b815260200160405180602001604052806000815250815260200182815250600560003373ffffffffffffffffffffffffffffffffffffffff1673ffffffffffffffffffffffffffffffffffffffff16815260200190815260200160002060008201518160000160006101000a81548173ffffffffffffffffffffffffffffffffffffffff021916908373ffffffffffffffffffffffffffffffffffffffff16021790555060208201518160010190805190602001906139c0929190614992565b5060408201518160020160006101000a81548160ff02191690836002811115613a12577f4e487b7100000000000000000000000000000000000000000000000000000000600052602160045260246000fd5b02179055506060820151816003019080519060200190613a33929190614992565b506080820151816004019080519060200190613a50929190614a95565b509050506003339080600181540180825580915050600190039060005260206000200160009091909190916101000a81548173ffffffffffffffffffffffffffffffffffffffff021916908373ffffffffffffffffffffffffffffffffffffffff1602179055507fcde7ad43021b1e42395b1d8739b5266838bc664a04d8b5886999251308dbbcbe8383604051613ae892919061574c565b60405180910390a1505050565b60046020528060005260406000206000915090508060000160009054906101000a900473ffffffffffffffffffffffffffffffffffffffff1690806001018054613b3e90615c0e565b80601f0160208091040260200160405190810160405280929190818152602001828054613b6a90615c0e565b8015613bb75780601f10613b8c57610100808354040283529160200191613bb7565b820191906000526020600020905b815481529060010190602001808311613b9a57829003601f168201915b5050505050908060020160009054906101000a900460ff1690806003018054613bdf90615c0e565b80601f0160208091040260200160405190810160405280929190818152602001828054613c0b90615c0e565b8015613c585780601f10613c2d57610100808354040283529160200191613c58565b820191906000526020600020905b815481529060010190602001808311613c3b57829003601f168201915b5050505050905084565b600073ffffffffffffffffffffffffffffffffffffffff16600460008473ffffffffffffffffffffffffffffffffffffffff1673ffffffffffffffffffffffffffffffffffffffff16815260200190815260200160002060000160009054906101000a900473ffffffffffffffffffffffffffffffffffffffff1673ffffffffffffffffffffffffffffffffffffffff161415613d34576040517f08c379a0000000000000000000000000000000000000000000000000000000008152600401613d2b906158cc565b60405180910390fd5b600280811115613d6d577f4e487b7100000000000000000000000000000000000000000000000000000000600052602160045260246000fd5b600460008473ffffffffffffffffffffffffffffffffffffffff1673ffffffffffffffffffffffffffffffffffffffff16815260200190815260200160002060020160009054906101000a900460ff166002811115613df5577f4e487b7100000000000000000000000000000000000000000000000000000000600052602160045260246000fd5b1415613e36576040517f08c379a0000000000000000000000000000000000000000000000000000000008152600401613e2d906157ec565b60405180910390fd5b613e446000836002846145bd565b5050565b600073ffffffffffffffffffffffffffffffffffffffff16600560003373ffffffffffffffffffffffffffffffffffffffff1673ffffffffffffffffffffffffffffffffffffffff16815260200190815260200160002060000160009054906101000a900473ffffffffffffffffffffffffffffffffffffffff1673ffffffffffffffffffffffffffffffffffffffff161415613f1a576040517f08c379a0000000000000000000000000000000000000000000000000000000008152600401613f11906157cc565b60405180910390fd5b60016002811115613f54577f4e487b7100000000000000000000000000000000000000000000000000000000600052602160045260246000fd5b600560003373ffffffffffffffffffffffffffffffffffffffff1673ffffffffffffffffffffffffffffffffffffffff16815260200190815260200160002060020160009054906101000a900460ff166002811115613fdc577f4e487b7100000000000000000000000000000000000000000000000000000000600052602160045260246000fd5b1461401c576040517f08c379a00000000000000000000000000000000000000000000000000000000081526004016140139061580c565b60405180910390fd5b6007805490508110614063576040517f08c379a000000000000000000000000000000000000000000000000000000000815260040161405a9061584c565b60405180910390fd5b6000600281111561409d577f4e487b7100000000000000000000000000000000000000000000000000000000600052602160045260246000fd5b600782815481106140d7577f4e487b7100000000000000000000000000000000000000000000000000000000600052603260045260246000fd5b906000526020600020906004020160020160149054906101000a900460ff16600281111561412e577f4e487b7100000000000000000000000000000000000000000000000000000000600052602160045260246000fd5b1461416e576040517f08c379a00000000000000000000000000000000000000000000000000000000081526004016141659061590c565b60405180910390fd5b6001600760018361417f9190615adc565b815481106141b6577f4e487b7100000000000000000000000000000000000000000000000000000000600052603260045260246000fd5b906000526020600020906004020160020160146101000a81548160ff0219169083600281111561420f577f4e487b7100000000000000000000000000000000000000000000000000000000600052602160045260246000fd5b021790555050565b60008054906101000a900473ffffffffffffffffffffffffffffffffffffffff1681565b614243614a18565b600073ffffffffffffffffffffffffffffffffffffffff16600460003373ffffffffffffffffffffffffffffffffffffffff1673ffffffffffffffffffffffffffffffffffffffff16815260200190815260200160002060000160009054906101000a900473ffffffffffffffffffffffffffffffffffffffff1673ffffffffffffffffffffffffffffffffffffffff161415614315576040517f08c379a000000000000000000000000000000000000000000000000000000000815260040161430c906157cc565b60405180910390fd5b600460003373ffffffffffffffffffffffffffffffffffffffff1673ffffffffffffffffffffffffffffffffffffffff1681526020019081526020016000206040518060a00160405290816000820160009054906101000a900473ffffffffffffffffffffffffffffffffffffffff1673ffffffffffffffffffffffffffffffffffffffff1673ffffffffffffffffffffffffffffffffffffffff1681526020016001820180546143c590615c0e565b80601f01602080910402602001604051908101604052809291908181526020018280546143f190615c0e565b801561443e5780601f106144135761010080835404028352916020019161443e565b820191906000526020600020905b81548152906001019060200180831161442157829003601f168201915b505050505081526020016002820160009054906101000a900460ff166002811115614492577f4e487b7100000000000000000000000000000000000000000000000000000000600052602160045260246000fd5b60028111156144ca577f4e487b7100000000000000000000000000000000000000000000000000000000600052602160045260246000fd5b81526020016003820180546144de90615c0e565b80601f016020809104026020016040519081016040528092919081815260200182805461450a90615c0e565b80156145575780601f1061452c57610100808354040283529160200191614557565b820191906000526020600020905b81548152906001019060200180831161453a57829003601f168201915b50505050508152602001600482018054806020026020016040519081016040528092919081815260200182805480156145af57602002820191906000526020600020905b81548152602001906001019080831161459b575b505050505081525050905090565b60008054906101000a900473ffffffffffffffffffffffffffffffffffffffff1673ffffffffffffffffffffffffffffffffffffffff163373ffffffffffffffffffffffffffffffffffffffff161461464b576040517f08c379a0000000000000000000000000000000000000000000000000000000008152600401614642906158ac565b60405180910390fd5b60006001811115614685577f4e487b7100000000000000000000000000000000000000000000000000000000600052602160045260246000fd5b8460018111156146be577f4e487b7100000000000000000000000000000000000000000000000000000000600052602160045260246000fd5b141561482a5781600460008573ffffffffffffffffffffffffffffffffffffffff1673ffffffffffffffffffffffffffffffffffffffff16815260200190815260200160002060020160006101000a81548160ff0219169083600281111561474f577f4e487b7100000000000000000000000000000000000000000000000000000000600052602160045260246000fd5b021790555080600460008573ffffffffffffffffffffffffffffffffffffffff1673ffffffffffffffffffffffffffffffffffffffff16815260200190815260200160002060030190805190602001906147aa929190614992565b507ff51009d782e1f2f1977dfd476d842cd72c5fff6a1ac96fdfbb65e507913cd1b4600460008573ffffffffffffffffffffffffffffffffffffffff1673ffffffffffffffffffffffffffffffffffffffff1681526020019081526020016000206001018360405161481d92919061577c565b60405180910390a161498c565b81600560008573ffffffffffffffffffffffffffffffffffffffff1673ffffffffffffffffffffffffffffffffffffffff16815260200190815260200160002060020160006101000a81548160ff021916908360028111156148b5577f4e487b7100000000000000000000000000000000000000000000000000000000600052602160045260246000fd5b021790555080600560008573ffffffffffffffffffffffffffffffffffffffff1673ffffffffffffffffffffffffffffffffffffffff1681526020019081526020016000206003019080519060200190614910929190614992565b507fcde7ad43021b1e42395b1d8739b5266838bc664a04d8b5886999251308dbbcbe600560008573ffffffffffffffffffffffffffffffffffffffff1673ffffffffffffffffffffffffffffffffffffffff1681526020019081526020016000206001018360405161498392919061577c565b60405180910390a15b50505050565b82805461499e90615c0e565b90600052602060002090601f0160209004810192826149c05760008555614a07565b82601f106149d957805160ff1916838001178555614a07565b82800160010185558215614a07579182015b82811115614a065782518255916020019190600101906149eb565b5b509050614a149190614b75565b5090565b6040518060a00160405280600073ffffffffffffffffffffffffffffffffffffffff1681526020016060815260200160006002811115614a81577f4e487b7100000000000000000000000000000000000000000000000000000000600052602160045260246000fd5b815260200160608152602001606081525090565b828054828255906000526020600020908101928215614ad1579160200282015b82811115614ad0578251825591602001919060010190614ab5565b5b509050614ade9190614b75565b5090565b6040518060a0016040528060008152602001600073ffffffffffffffffffffffffffffffffffffffff168152602001600073ffffffffffffffffffffffffffffffffffffffff16815260200160006002811115614b68577f4e487b7100000000000000000000000000000000000000000000000000000000600052602160045260246000fd5b8152602001606081525090565b5b80821115614b8e576000816000905550600101614b76565b5090565b6000614ba5614ba0846159bf565b61598e565b905082815260208101848484011115614bbd57600080fd5b614bc8848285615ba2565b509392505050565b600081359050614bdf81615d7e565b92915050565b600082601f830112614bf657600080fd5b8135614c06848260208601614b92565b91505092915050565b600081359050614c1e81615d95565b92915050565b600060208284031215614c3657600080fd5b6000614c4484828501614bd0565b91505092915050565b60008060408385031215614c6057600080fd5b6000614c6e85828601614bd0565b925050602083013567ffffffffffffffff811115614c8b57600080fd5b614c9785828601614be5565b9150509250929050565b600060208284031215614cb357600080fd5b600082013567ffffffffffffffff811115614ccd57600080fd5b614cd984828501614be5565b91505092915050565b600060208284031215614cf457600080fd5b6000614d0284828501614c0f565b91505092915050565b6000614d1783836154b5565b905092915050565b6000614d2b838361552b565b905092915050565b6000614d3f8383615633565b60208301905092915050565b614d5481615b10565b82525050565b614d6381615b10565b82525050565b6000614d7482615a34565b614d7e8185615a87565b935083602082028501614d90856159ef565b8060005b85811015614dcc5784840389528151614dad8582614d0b565b9450614db883615a60565b925060208a01995050600181019050614d94565b50829750879550505050505092915050565b6000614de982615a3f565b614df38185615a98565b935083602082028501614e05856159ff565b8060005b85811015614e415784840389528151614e228582614d1f565b9450614e2d83615a6d565b925060208a01995050600181019050614e09565b50829750879550505050505092915050565b6000614e5e82615a4a565b614e688185615aa9565b9350614e7383615a0f565b8060005b83811015614ea4578151614e8b8882614d33565b9750614e9683615a7a565b925050600181019050614e77565b5085935050505092915050565b614eba81615b22565b82525050565b614ec981615b7e565b82525050565b614ed881615b90565b82525050565b614ee781615b90565b82525050565b6000614ef882615a55565b614f028185615aba565b9350614f12818560208601615bb1565b614f1b81615d45565b840191505092915050565b6000614f3182615a55565b614f3b8185615acb565b9350614f4b818560208601615bb1565b614f5481615d45565b840191505092915050565b60008154614f6c81615c0e565b614f768186615acb565b94506001821660008114614f915760018114614fa357614fd6565b60ff1983168652602086019350614fd6565b614fac85615a1f565b60005b83811015614fce57815481890152600182019150602081019050614faf565b808801955050505b50505092915050565b6000614fec602d83615acb565b91507f596f75206d757374206265207468652061646d696e6973747261746f7220746f60008301527f2073657420746865206e616d65000000000000000000000000000000000000006020830152604082019050919050565b6000615052602383615acb565b91507f54686520617564697420636f6d70616e79206973206e6f74207265676973746560008301527f72656400000000000000000000000000000000000000000000000000000000006020830152604082019050919050565b60006150b8601f83615acb565b91507f54686520636f6d70616e7920697320616c72656164792072656a6563746564006000830152602082019050919050565b60006150f8602583615acb565b91507f54686520617564697461626c6520636f6d70616e79206973206e6f742061707060008301527f726f7665640000000000000000000000000000000000000000000000000000006020830152604082019050919050565b600061515e602183615acb565b91507f54686520636f6d70616e7920697320616c72656164792072656769737465726560008301527f64000000000000000000000000000000000000000000000000000000000000006020830152604082019050919050565b60006151c4601b83615acb565b91507f54686520617564697420696420646f6573206e6f7420657869737400000000006000830152602082019050919050565b6000615204602783615acb565b91507f54686520617564697461626c6520636f6d70616e79206973206e6f742072656760008301527f69737465726564000000000000000000000000000000000000000000000000006020830152604082019050919050565b600061526a601f83615acb565b91507f54686520636f6d70616e7920697320616c726561647920617070726f766564006000830152602082019050919050565b60006152aa602d83615acb565b91507f596f75206d757374206265207468652061646d696e6973747261746f7220746f60008301527f206368616e6765207374617465000000000000000000000000000000000000006020830152604082019050919050565b6000615310602c83615acb565b91507f54686520636f6d70616e7920646f65736e2774206861766520612070656e646960008301527f6e672061646d697373696f6e00000000000000000000000000000000000000006020830152604082019050919050565b6000615376601883615acb565b91507f596f752063616e277420617564697420796f757273656c6600000000000000006000830152602082019050919050565b60006153b6602883615acb565b91507f54686520617564697420697320616c726561647920617070726f766564206f2060008301527f72656a65637465640000000000000000000000000000000000000000000000006020830152604082019050919050565b600061541c602183615acb565b91507f54686520617564697420636f6d70616e79206973206e6f7420617070726f766560008301527f64000000000000000000000000000000000000000000000000000000000000006020830152604082019050919050565b6000615482601d83615acb565b91507f54686520636f6d70616e79206973206e6f7420726567697374657265640000006000830152602082019050919050565b600060a0830160008301516154cd6000860182615633565b5060208301516154e06020860182614d4b565b5060408301516154f36040860182614d4b565b5060608301516155066060860182614ec0565b506080830151848203608086015261551e8282614eed565b9150508091505092915050565b600060a0830160008301516155436000860182614d4b565b506020830151848203602086015261555b8282614eed565b91505060408301516155706040860182614ecf565b50606083015184820360608601526155888282614eed565b915050608083015184820360808601526155a28282614e53565b9150508091505092915050565b600060a0830160008301516155c76000860182614d4b565b50602083015184820360208601526155df8282614eed565b91505060408301516155f46040860182614ecf565b506060830151848203606086015261560c8282614eed565b915050608083015184820360808601526156268282614e53565b9150508091505092915050565b61563c81615b74565b82525050565b60006020820190506156576000830184614d5a565b92915050565b60006080820190506156726000830187614d5a565b81810360208301526156848186614f26565b90506156936040830185614ede565b81810360608301526156a58184614f26565b905095945050505050565b600060208201905081810360008301526156ca8184614d69565b905092915050565b600060208201905081810360008301526156ec8184614dde565b905092915050565b60006020820190506157096000830184614eb1565b92915050565b60006020820190506157246000830184614ede565b92915050565b600060208201905081810360008301526157448184614f26565b905092915050565b600060408201905081810360008301526157668185614f26565b90506157756020830184614ede565b9392505050565b600060408201905081810360008301526157968185614f5f565b90506157a56020830184614ede565b9392505050565b600060208201905081810360008301526157c581614fdf565b9050919050565b600060208201905081810360008301526157e581615045565b9050919050565b60006020820190508181036000830152615805816150ab565b9050919050565b60006020820190508181036000830152615825816150eb565b9050919050565b6000602082019050818103600083015261584581615151565b9050919050565b60006020820190508181036000830152615865816151b7565b9050919050565b60006020820190508181036000830152615885816151f7565b9050919050565b600060208201905081810360008301526158a58161525d565b9050919050565b600060208201905081810360008301526158c58161529d565b9050919050565b600060208201905081810360008301526158e581615303565b9050919050565b6000602082019050818103600083015261590581615369565b9050919050565b60006020820190508181036000830152615925816153a9565b9050919050565b600060208201905081810360008301526159458161540f565b9050919050565b6000602082019050818103600083015261596581615475565b9050919050565b6000602082019050818103600083015261598681846155af565b905092915050565b6000604051905081810181811067ffffffffffffffff821117156159b5576159b4615d16565b5b8060405250919050565b600067ffffffffffffffff8211156159da576159d9615d16565b5b601f19601f8301169050602081019050919050565b6000819050602082019050919050565b6000819050602082019050919050565b6000819050602082019050919050565b60008190508160005260206000209050919050565b600081519050919050565b600081519050919050565b600081519050919050565b600081519050919050565b6000602082019050919050565b6000602082019050919050565b6000602082019050919050565b600082825260208201905092915050565b600082825260208201905092915050565b600082825260208201905092915050565b600082825260208201905092915050565b600082825260208201905092915050565b6000615ae782615b74565b9150615af283615b74565b925082821015615b0557615b04615c89565b5b828203905092915050565b6000615b1b82615b54565b9050919050565b60008115159050919050565b6000819050615b3c82615d56565b919050565b6000819050615b4f82615d6a565b919050565b600073ffffffffffffffffffffffffffffffffffffffff82169050919050565b6000819050919050565b6000615b8982615b2e565b9050919050565b6000615b9b82615b41565b9050919050565b82818337600083830152505050565b60005b83811015615bcf578082015181840152602081019050615bb4565b83811115615bde576000848401525b50505050565b6000615bef82615b74565b91506000821415615c0357615c02615c89565b5b600182039050919050565b60006002820490506001821680615c2657607f821691505b60208210811415615c3a57615c39615ce7565b5b50919050565b6000615c4b82615b74565b91507fffffffffffffffffffffffffffffffffffffffffffffffffffffffffffffffff821415615c7e57615c7d615c89565b5b600182019050919050565b7f4e487b7100000000000000000000000000000000000000000000000000000000600052601160045260246000fd5b7f4e487b7100000000000000000000000000000000000000000000000000000000600052602160045260246000fd5b7f4e487b7100000000000000000000000000000000000000000000000000000000600052602260045260246000fd5b7f4e487b7100000000000000000000000000000000000000000000000000000000600052604160045260246000fd5b6000601f19601f8301169050919050565b60038110615d6757615d66615cb8565b5b50565b60038110615d7b57615d7a615cb8565b5b50565b615d8781615b10565b8114615d9257600080fd5b50565b615d9e81615b74565b8114615da957600080fd5b5056fea26469706673582212206c2908973c3a0d2a696ca20bdab13cecba6d7a83be21b7a7aa224cde224b68b864736f6c63430008000033",
  "linkReferences": {},
  "deployedLinkReferences": {}
}