{
  "_format": "hh-sol-artifact-1",
  "contractName": "CompanyManager",
  "sourceName": "contracts/AuditBook.sol",
  "abi": [
    {
      "inputs": [
        {
          "internalType": "address",
          "name": "_admin",
          "type": "address"
        }
      ],
      "stateMutability": "nonpayable",
      "type": "constructor"
    },
    {
      "anonymous": false,
      "inputs": [
        {
          "indexed": false,
          "internalType": "string",
          "name": "companyName",
          "type": "string"
        },
        {
          "indexed": false,
          "internalType": "enum CompanyManager.RequestAdmissionStateEnum",
          "name": "actualState",
          "type": "uint8"
        }
      ],
      "name": "CompanyStateChanged",
      "type": "event"
    },
    {
      "inputs": [
        {
          "internalType": "address",
          "name": "sender",
          "type": "address"
        },
        {
          "internalType": "address",
          "name": "_company",
          "type": "address"
        }
      ],
      "name": "Approve",
      "outputs": [],
      "stateMutability": "nonpayable",
      "type": "function"
    },
    {
      "inputs": [
        {
          "internalType": "address",
          "name": "sender",
          "type": "address"
        }
      ],
      "name": "CompanyState",
      "outputs": [
        {
          "internalType": "enum CompanyManager.RequestAdmissionStateEnum",
          "name": "",
          "type": "uint8"
        }
      ],
      "stateMutability": "view",
      "type": "function"
    },
    {
      "inputs": [
        {
          "internalType": "address",
          "name": "sender",
          "type": "address"
        }
      ],
      "name": "IsRegistered",
      "outputs": [
        {
          "internalType": "bool",
          "name": "",
          "type": "bool"
        }
      ],
      "stateMutability": "view",
      "type": "function"
    },
    {
      "inputs": [
        {
          "internalType": "address",
          "name": "sender",
          "type": "address"
        },
        {
          "internalType": "address",
          "name": "_company",
          "type": "address"
        },
        {
          "internalType": "string",
          "name": "_message",
          "type": "string"
        }
      ],
      "name": "Reject",
      "outputs": [],
      "stateMutability": "nonpayable",
      "type": "function"
    },
    {
      "inputs": [
        {
          "internalType": "address",
          "name": "sender",
          "type": "address"
        },
        {
          "internalType": "string",
          "name": "_companyName",
          "type": "string"
        },
        {
          "internalType": "enum CompanyManager.CompanyTypeEnum",
          "name": "companyType",
          "type": "uint8"
        }
      ],
      "name": "RequestAdmision",
      "outputs": [],
      "stateMutability": "nonpayable",
      "type": "function"
    },
    {
      "inputs": [
        {
          "internalType": "address",
          "name": "",
          "type": "address"
        }
      ],
      "name": "companies",
      "outputs": [
        {
          "internalType": "enum CompanyManager.CompanyTypeEnum",
          "name": "companyType",
          "type": "uint8"
        },
        {
          "internalType": "address",
          "name": "account",
          "type": "address"
        },
        {
          "internalType": "string",
          "name": "name",
          "type": "string"
        },
        {
          "internalType": "enum CompanyManager.RequestAdmissionStateEnum",
          "name": "state",
          "type": "uint8"
        },
        {
          "internalType": "string",
          "name": "changeStateMessage",
          "type": "string"
        }
      ],
      "stateMutability": "view",
      "type": "function"
    },
    {
      "inputs": [],
      "name": "getAll",
      "outputs": [
        {
          "components": [
            {
              "internalType": "enum CompanyManager.CompanyTypeEnum",
              "name": "companyType",
              "type": "uint8"
            },
            {
              "internalType": "address",
              "name": "account",
              "type": "address"
            },
            {
              "internalType": "string",
              "name": "name",
              "type": "string"
            },
            {
              "internalType": "enum CompanyManager.RequestAdmissionStateEnum",
              "name": "state",
              "type": "uint8"
            },
            {
              "internalType": "string",
              "name": "changeStateMessage",
              "type": "string"
            }
          ],
          "internalType": "struct CompanyManager.Company[]",
          "name": "",
          "type": "tuple[]"
        }
      ],
      "stateMutability": "view",
      "type": "function"
    },
    {
      "inputs": [],
      "name": "getApproved",
      "outputs": [
        {
          "components": [
            {
              "internalType": "enum CompanyManager.CompanyTypeEnum",
              "name": "companyType",
              "type": "uint8"
            },
            {
              "internalType": "address",
              "name": "account",
              "type": "address"
            },
            {
              "internalType": "string",
              "name": "name",
              "type": "string"
            },
            {
              "internalType": "enum CompanyManager.RequestAdmissionStateEnum",
              "name": "state",
              "type": "uint8"
            },
            {
              "internalType": "string",
              "name": "changeStateMessage",
              "type": "string"
            }
          ],
          "internalType": "struct CompanyManager.Company[]",
          "name": "",
          "type": "tuple[]"
        }
      ],
      "stateMutability": "view",
      "type": "function"
    },
    {
      "inputs": [
        {
          "internalType": "address",
          "name": "sender",
          "type": "address"
        }
      ],
      "name": "getCompanyRegister",
      "outputs": [
        {
          "components": [
            {
              "internalType": "enum CompanyManager.CompanyTypeEnum",
              "name": "companyType",
              "type": "uint8"
            },
            {
              "internalType": "address",
              "name": "account",
              "type": "address"
            },
            {
              "internalType": "string",
              "name": "name",
              "type": "string"
            },
            {
              "internalType": "enum CompanyManager.RequestAdmissionStateEnum",
              "name": "state",
              "type": "uint8"
            },
            {
              "internalType": "string",
              "name": "changeStateMessage",
              "type": "string"
            }
          ],
          "internalType": "struct CompanyManager.Company",
          "name": "",
          "type": "tuple"
        }
      ],
      "stateMutability": "view",
      "type": "function"
    }
  ],
  "bytecode": "0x608060405234801561001057600080fd5b5060405161198f38038061198f83398101604081905261002f91610054565b600280546001600160a01b0319166001600160a01b0392909216919091179055610082565b600060208284031215610065578081fd5b81516001600160a01b038116811461007b578182fd5b9392505050565b6118fe806100916000396000f3fe608060405234801561001057600080fd5b50600436106100935760003560e01c8063727434dc11610066578063727434dc1461010f5780637f54c8aa1461012257806391d810f114610142578063c224122d14610155578063d07b77b51461017557610093565b80631d2e0c9114610098578063355e6ce8146100c15780633ce2da1d146100e557806353ed5143146100fa575b600080fd5b6100ab6100a63660046112ce565b61017d565b6040516100b89190611582565b60405180910390f35b6100d46100cf3660046112ce565b6101eb565b6040516100b8959493929190611527565b6100f86100f33660046112ef565b610342565b005b610102610423565b6040516100b891906114bc565b6100f861011d36600461137d565b610705565b6101356101303660046112ce565b61092d565b6040516100b891906117f1565b6100f8610150366004611321565b610b72565b6101686101633660046112ce565b610c1d565b6040516100b8919061151c565b610102610c42565b6001600160a01b038181166000908152600160205260408120549091610100909104166101c55760405162461bcd60e51b81526004016101bc906117ba565b60405180910390fd5b506001600160a01b03811660009081526001602052604090206002015460ff165b919050565b60016020819052600091825260409091208054918101805460ff84169361010090046001600160a01b031692919061022290611830565b80601f016020809104026020016040519081016040528092919081815260200182805461024e90611830565b801561029b5780601f106102705761010080835404028352916020019161029b565b820191906000526020600020905b81548152906001019060200180831161027e57829003601f168201915b5050506002840154600385018054949560ff9092169491935091506102bf90611830565b80601f01602080910402602001604051908101604052809291908181526020018280546102eb90611830565b80156103385780601f1061030d57610100808354040283529160200191610338565b820191906000526020600020905b81548152906001019060200180831161031b57829003601f168201915b5050505050905085565b6001600160a01b0381811660009081526001602052604090205461010090041661037e5760405162461bcd60e51b81526004016101bc9061176e565b60016001600160a01b038216600090815260016020526040902060029081015460ff16908111156103bf57634e487b7160e01b600052602160045260246000fd5b14156103dd5760405162461bcd60e51b81526004016101bc906116ea565b61041f828260016040518060400160405280601981526020017f596f752061646d6973696f6e2077617320617070726f76656400000000000000815250611069565b5050565b600080546060918167ffffffffffffffff81111561045157634e487b7160e01b600052604160045260246000fd5b60405190808252806020026020018201604052801561048a57816020015b610477611170565b81526020019060019003908161046f5790505b50905060005b828110156106fe57600160008083815481106104bc57634e487b7160e01b600052603260045260246000fd5b60009182526020808320909101546001600160a01b031683528201929092526040908101909120815160a081019092528054829060ff16600181111561051257634e487b7160e01b600052602160045260246000fd5b600181111561053157634e487b7160e01b600052602160045260246000fd5b8152815461010090046001600160a01b0316602082015260018201805460409092019161055d90611830565b80601f016020809104026020016040519081016040528092919081815260200182805461058990611830565b80156105d65780601f106105ab576101008083540402835291602001916105d6565b820191906000526020600020905b8154815290600101906020018083116105b957829003601f168201915b505050918352505060028281015460209092019160ff169081111561060b57634e487b7160e01b600052602160045260246000fd5b600281111561062a57634e487b7160e01b600052602160045260246000fd5b815260200160038201805461063e90611830565b80601f016020809104026020016040519081016040528092919081815260200182805461066a90611830565b80156106b75780601f1061068c576101008083540402835291602001916106b7565b820191906000526020600020905b81548152906001019060200180831161069a57829003601f168201915b5050505050815250508282815181106106e057634e487b7160e01b600052603260045260246000fd5b602002602001018190525080806106f69061186b565b915050610490565b5091505090565b6001600160a01b03838116600090815260016020526040902054610100900416156107425760405162461bcd60e51b81526004016101bc906116a9565b60006040518060a0016040528083600181111561076f57634e487b7160e01b600052602160045260246000fd5b8152602001856001600160a01b031681526020018481526020018260028111156107a957634e487b7160e01b600052602160045260246000fd5b815260408051602081810183526000808352938101919091526001600160a01b038816835260019081905291208251815491929091839160ff1990911690838181111561080657634e487b7160e01b600052602160045260246000fd5b021790555060208281015182546001600160a01b0390911661010002610100600160a81b031990911617825560408301518051610849926001850192019061119d565b5060608201518160020160006101000a81548160ff0219169083600281111561088257634e487b7160e01b600052602160045260246000fd5b0217905550608082015180516108a291600384019160209091019061119d565b5050600080546001810182559080527f290decd9548b62a8d60345a988386fc84ba6bc95484008f6362f93160ef3e5630180546001600160a01b0319166001600160a01b038716179055506040517fb8ac9bc9c4487d87826db7ca5c949833d93090550c3c8b045660a4f12e75b9eb9061091f9085908490611596565b60405180910390a150505050565b610935611170565b6001600160a01b038281166000908152600160205260409020546101009004166109715760405162461bcd60e51b81526004016101bc906117ba565b6001600160a01b038216600090815260016020819052604091829020825160a0810190935280549091839160ff16908111156109bd57634e487b7160e01b600052602160045260246000fd5b60018111156109dc57634e487b7160e01b600052602160045260246000fd5b8152815461010090046001600160a01b03166020820152600182018054604090920191610a0890611830565b80601f0160208091040260200160405190810160405280929190818152602001828054610a3490611830565b8015610a815780601f10610a5657610100808354040283529160200191610a81565b820191906000526020600020905b815481529060010190602001808311610a6457829003601f168201915b505050918352505060028281015460209092019160ff1690811115610ab657634e487b7160e01b600052602160045260246000fd5b6002811115610ad557634e487b7160e01b600052602160045260246000fd5b8152602001600382018054610ae990611830565b80601f0160208091040260200160405190810160405280929190818152602001828054610b1590611830565b8015610b625780601f10610b3757610100808354040283529160200191610b62565b820191906000526020600020905b815481529060010190602001808311610b4557829003601f168201915b5050505050815250509050919050565b6001600160a01b03828116600090815260016020526040902054610100900416610bae5760405162461bcd60e51b81526004016101bc9061176e565b6001600160a01b038216600090815260016020526040902060029081015460ff1681811115610bed57634e487b7160e01b600052602160045260246000fd5b1415610c0b5760405162461bcd60e51b81526004016101bc90611672565b610c188383600284611069565b505050565b6001600160a01b03908116600090815260016020526040902054610100900416151590565b60008054606091805b82811015610ce9576001806000808481548110610c7857634e487b7160e01b600052603260045260246000fd5b60009182526020808320909101546001600160a01b03168352820192909252604001902060029081015460ff1690811115610cc357634e487b7160e01b600052602160045260246000fd5b1415610cd75781610cd38161186b565b9250505b80610ce18161186b565b915050610c4b565b5060008167ffffffffffffffff811115610d1357634e487b7160e01b600052604160045260246000fd5b604051908082528060200260200182016040528015610d4c57816020015b610d39611170565b815260200190600190039081610d315790505b5090506000805b8481108015610d625750600084115b1561105f576001806000808481548110610d8c57634e487b7160e01b600052603260045260246000fd5b60009182526020808320909101546001600160a01b03168352820192909252604001902060029081015460ff1690811115610dd757634e487b7160e01b600052602160045260246000fd5b141561104d5760016000808381548110610e0157634e487b7160e01b600052603260045260246000fd5b60009182526020808320909101546001600160a01b031683528201929092526040908101909120815160a081019092528054829060ff166001811115610e5757634e487b7160e01b600052602160045260246000fd5b6001811115610e7657634e487b7160e01b600052602160045260246000fd5b8152815461010090046001600160a01b03166020820152600182018054604090920191610ea290611830565b80601f0160208091040260200160405190810160405280929190818152602001828054610ece90611830565b8015610f1b5780601f10610ef057610100808354040283529160200191610f1b565b820191906000526020600020905b815481529060010190602001808311610efe57829003601f168201915b505050918352505060028281015460209092019160ff1690811115610f5057634e487b7160e01b600052602160045260246000fd5b6002811115610f6f57634e487b7160e01b600052602160045260246000fd5b8152602001600382018054610f8390611830565b80601f0160208091040260200160405190810160405280929190818152602001828054610faf90611830565b8015610ffc5780601f10610fd157610100808354040283529160200191610ffc565b820191906000526020600020905b815481529060010190602001808311610fdf57829003601f168201915b50505050508152505083838151811061102557634e487b7160e01b600052603260045260246000fd5b6020026020010181905250818061103b9061186b565b925050838061104990611819565b9450505b806110578161186b565b915050610d53565b5090935050505090565b6002546001600160a01b038581169116146110965760405162461bcd60e51b81526004016101bc90611721565b8160016000856001600160a01b03166001600160a01b0316815260200190815260200160002060020160006101000a81548160ff021916908360028111156110ee57634e487b7160e01b600052602160045260246000fd5b02179055506001600160a01b038316600090815260016020908152604090912082516111229260039092019184019061119d565b506001600160a01b03831660009081526001602081905260409182902091517fb8ac9bc9c4487d87826db7ca5c949833d93090550c3c8b045660a4f12e75b9eb9261091f92019085906115b8565b6040805160a081018252600080825260208201819052606092820183905282820152608081019190915290565b8280546111a990611830565b90600052602060002090601f0160209004810192826111cb5760008555611211565b82601f106111e457805160ff1916838001178555611211565b82800160010185558215611211579182015b828111156112115782518255916020019190600101906111f6565b5061121d929150611221565b5090565b5b8082111561121d5760008155600101611222565b80356001600160a01b03811681146101e657600080fd5b600082601f83011261125d578081fd5b813567ffffffffffffffff80821115611278576112786118b2565b604051601f8301601f19168101602001828111828210171561129c5761129c6118b2565b6040528281528483016020018610156112b3578384fd5b82602086016020830137918201602001929092529392505050565b6000602082840312156112df578081fd5b6112e882611236565b9392505050565b60008060408385031215611301578081fd5b61130a83611236565b915061131860208401611236565b90509250929050565b600080600060608486031215611335578081fd5b61133e84611236565b925061134c60208501611236565b9150604084013567ffffffffffffffff811115611367578182fd5b6113738682870161124d565b9150509250925092565b600080600060608486031215611391578283fd5b61139a84611236565b9250602084013567ffffffffffffffff8111156113b5578283fd5b6113c18682870161124d565b9250506040840135600281106113d5578182fd5b809150509250925092565b600281106113f0576113f061189c565b9052565b600381106113f0576113f061189c565b60008151808452815b818110156114295760208185018101518683018201520161140d565b8181111561143a5782602083870101525b50601f01601f19169290920160200192915050565b600061145c8383516113e0565b60018060a01b036020830151166020840152604082015160a0604085015261148760a0850182611404565b9050606083015161149b60608601826113f4565b50608083015184820360808601526114b38282611404565b95945050505050565b6000602080830181845280855180835260408601915060408482028701019250838701855b8281101561150f57603f198886030184526114fd85835161144f565b945092850192908501906001016114e1565b5092979650505050505050565b901515815260200190565b600061153382886113e0565b6001600160a01b038616602083015260a06040830181905261155790830186611404565b61156460608401866113f4565b82810360808401526115768185611404565b98975050505050505050565b6020810161159082846113f4565b92915050565b6000604082526115a96040830185611404565b90506112e860208301846113f4565b6040815282546000908190600281046001808316806115d857607f831692505b60208084108214156115f857634e487b7160e01b87526022600452602487fd5b6116058460408a01611810565b828015611619576001811461162a57611654565b60ff19871682528282019750611654565b6116338c611804565b895b8781101561164e57815484820152908601908401611635565b83019850505b50508596506116658189018a6113f4565b5050505050509392505050565b6020808252601f908201527f54686520636f6d70616e7920697320616c72656164792072656a656374656400604082015260600190565b60208082526021908201527f54686520636f6d70616e7920697320616c7265616479207265676973746572656040820152601960fa1b606082015260800190565b6020808252601f908201527f54686520636f6d70616e7920697320616c726561647920617070726f76656400604082015260600190565b6020808252602d908201527f596f75206d757374206265207468652061646d696e6973747261746f7220746f60408201526c206368616e676520737461746560981b606082015260800190565b6020808252602c908201527f54686520636f6d70616e7920646f65736e2774206861766520612070656e646960408201526b37339030b236b4b9b9b4b7b760a11b606082015260800190565b6020808252601d908201527f54686520636f6d70616e79206973206e6f742072656769737465726564000000604082015260600190565b6000602082526112e8602083018461144f565b60009081526020902090565b90815260200190565b60008161182857611828611886565b506000190190565b60028104600182168061184457607f821691505b6020821081141561186557634e487b7160e01b600052602260045260246000fd5b50919050565b600060001982141561187f5761187f611886565b5060010190565b634e487b7160e01b600052601160045260246000fd5b634e487b7160e01b600052602160045260246000fd5b634e487b7160e01b600052604160045260246000fdfea264697066735822122000ae0efd818a408464bcf9dc1784827dd34d94851f42a8356b516607e7c9bd1b64736f6c63430008000033",
  "linkReferences": {},
  "deployedLinkReferences": {}
}